:060000000A128A11EE2F26
:10001000831203132308F3002208F2002108F100E1
:100020002008F0000030F7000030F6000030F50046
:100030000030F4000A168A1120270A128A11031CC4
:1000400022282328342883120313240884008313CE
:100050008001840A80010030A3000030A20000303B
:10006000A1000030A00063288312031323087F3906
:10007000FC00FD010310FC0DFD0D240884007C082C
:1000800083138000840A7D088000220D220D01392F
:10009000FC00FD01240884007C088004840A7D089B
:1000A00080042408840082308007840F000803182D
:1000B000000AFF00FF307F07800084032308803997
:1000C0003F38A300A2130800831603133308F3007C
:1000D0003208F2003108F1003008F0000030F7007B
:1000E0000030F6000030F5000030F4000A128A15E6
:1000F00062200A128A1103187E287F288E28213058
:1001000083160313E6000030E7000030B300003030
:10011000B2000030B1000030B000AF2983160313E5
:100120003308F3003208F2003108F1003008F00023
:100130000030F7000030F6000030F5000030F40029
:100140000A168A1120270A128A11031CA828A92836
:10015000B828223083160313E6000030E700003091
:10016000B3000030B2000030B1000030B000AF2961
:10017000BF3083120313DC008030DB000030DA0074
:100180000030D9004030A8000030A7000030A600A1
:100190000030A500B430ED006D08A40083160313F1
:1001A000330883120313A300831603133208831248
:1001B0000313A20083160313310883120313A10053
:1001C00083160313300883120313A0000A128A1146
:1001D00008200A128A11831203132308AC00220894
:1001E000AB002108AA002008A9000A128A118D2458
:1001F0000A128A11831203132808E0002708DF007F
:100200002608DE002508DD000A128A1578250A1264
:100210008A11831203135C0883160313B30083123D
:1002200003135B0883160313B200831203135A08E7
:1002300083160313B10083120313590883160313A3
:10024000B000FF30B4070318B50AFF30B507330814
:10025000A3003208A2003108A1003008A0000B3032
:1002600083120313ED006D0883160313A4000830F6
:10027000A5000030A6000A128A15BE210A128A11B2
:10028000831603132308B3002208B2002108B1002B
:100290002008B000330883120313DC008316031315
:1002A000320883120313DB00831603133108831211
:1002B0000313DA0083160313300883120313D900E3
:1002C0003F30A8003130A7007230A6001830A500DA
:1002D000831603133408F0003508F1000030F11BD9
:1002E000FF30F200F30001300A128A1504210A12CD
:1002F0008A11730883120313AC007208AB007108F3
:10030000AA007008A9000A128A118D240A128A1103
:10031000831203132808E0002708DF002608DE0008
:100320002508DD000A128A1578250A128A1183121F
:1003300003135C0883160313B300831203135B08D3
:1003400083160313B200831203135A088316031390
:10035000B10083120313590883160313B000080079
:100360007130831603138F00013083160317880042
:1003700083120313850183160313051485100511D9
:1003800085119F171F129F12C330831203139F05FD
:100390001F083F3940389F001F1413308316031382
:1003A000C000C00BD1290A168A11E0250A128A1151
:1003B000831203139F149F18DE29DF29DB291E08EF
:1003C00083160313C000C1014008E8004108E9009A
:1003D0006808C100C0011E084007C20000300318B1
:1003E00001304107C3004208E8004308E9006808FB
:1003F000F0006908F100F201F30100300A128A15D9
:1004000004210A128A11730883160313E500720887
:10041000E4007108E3007008E2004430A7007F3078
:10042000A600C030A5000030A4006508A300640841
:10043000A2006308A1006208A0000A128A15122017
:100440000A128A11831603132308AB002208AA009C
:100450002108A9002008A8000A168A116E270A128E
:100460008A11831603132B08D1002A08D00029080B
:10047000CF002808CE00C13083120313DC002030E7
:10048000DB000030DA000030D90083160313510876
:10049000F3005008F2004F08F1004E08F000013060
:1004A0000A128A1504210A128A117308831203138F
:1004B000C2007208C1007108C0007008BF00463059
:1004C000C6002030C5002830C4000030C3000A1226
:1004D0008A159B230A128A11831203134208E00033
:1004E0004108DF004008DE003F08DD000A128A15DF
:1004F00078250A128A11831203135C0883160313EA
:10050000D500831203135B0883160313D4008312F0
:1005100003135A0883160313D300831203135908D5
:1005200083160313D200413083120313C20020301C
:10053000C1000030C0000030BF008316031355080F
:1005400083120313C6008316031354088312031384
:10055000C50083160313530883120313C4008316C4
:100560000313520883120313C3000A128A159B2334
:100570000A128A1183120313420883160313B3006D
:1005800083120313410883160313B200831203136B
:10059000400883160313B100831203133F08831628
:1005A0000313B0000A128A1164200A128A118316FA
:1005B00003133308D9003208D8003108D7003008B7
:1005C000D600413083120313DC005B30DB0098302F
:1005D000DA00EA30D9008316031359088312031393
:1005E000E00083160313580883120313DF008316F9
:1005F0000313570883120313DE00831603135608F0
:1006000083120313DD000A128A1578250A128A1153
:10061000831203135C08C2005B08C1005A08C000C3
:100620005908BF004530C6007F30C500A030C40067
:100630000030C3000A128A159B230A128A11831202
:100640000313420883160313DD00831203134108CA
:1006500083160313DC00831203134008831603136D
:10066000DB00831203133F0883160313DA00C33041
:1006700083120313DC008830DB008030DA000030A6
:10068000D900831603135D0883120313E000831659
:1006900003135C0883120313DF00831603135B0844
:1006A00083120313DE00831603135A088312031305
:1006B000DD000A128A1578250A128A1183120313A3
:1006C0005C0883160313E100831203135B0883168F
:1006D0000313E000831203135A0883160313DF0089
:1006E00083120313590883160313DE005B30C00026
:1006F0004008B1006108AB006008AA005F08A900CB
:100700005E08A8000A168A116E270A128A1183163B
:1007100003132908B3002808B200DF30B40000300A
:10072000B500C4300A128A1598220A128A11F501FE
:10073000553083160313C0004008F60001300A1636
:100740008A110A260A128A11C430F3000030F4001C
:100750000A168A1193250A128A116130F30080303B
:10076000F4000A168A1193250A128A114130F30007
:10077000C830F2000030F1000030F000831603139F
:100780006108F7006008F6005F08F5005E08F400F5
:100790000A128A1562200A128A110318D02BD12B53
:1007A000072C831203138514333083160313C200FE
:1007B000BB30C100DF30C000C00BDC2BC10BDC2B19
:1007C000C20BDC2B0A128A1502200A128A11F501CB
:1007D0002F3083160313C0004008F60002300A16BB
:1007E0008A110A260A128A111F3083160313C200C7
:1007F0007130C1001D30C000C00BFC2BC10BFC2BA5
:10080000C20BFC2B032C831203138510802C831640
:1008100003136108F3006008F2005F08F1005E084E
:10082000F0004130F7009030F6000030F500003065
:10083000F4000A128A1562200A128A110318212C68
:10084000222C592C8312031305151F308316031312
:10085000C2007130C1001D30C000C00B2D2CC10B77
:100860002D2CC20B2D2C342C0A128A1502200A12B0
:100870008A11F5013E3083160313C0004008F600CC
:1008800002300A168A110A260A128A111F308316AC
:100890000313C2007130C1001D30C000C00B4E2CCC
:1008A000C10B4E2CC20B4E2C552C83120313051179
:1008B000802C8312031385150A128A1502200A124E
:1008C0008A11F5014C3083160313C0004008F6006E
:1008D00002300A168A110A260A128A111F3083165C
:1008E0000313C2007130C1001D30C000C00B762C54
:1008F000C10B762CC20B762C7D2C83120313851131
:100900006130F3008030F4000A168A1193250A1230
:100910008A11D8290A128A11002883120313280881
:100920008039AD002D08B2002808AD002D07AE00BB
:100930002E08B800A71F9D2C9E2C9F2C3814380819
:100940000319A32CA42CB32C380A031DA82CA92C02
:10095000B12C0030A8000030A7000030A600003005
:10096000A500A717BB2C0030A8000030A70000305E
:10097000A6000030A5002C088039AD002D08B20675
:100980002C08AD002D07AE002E08B700AB1FC92CF8
:10099000CA2CCB2C371437080319CF2CD02CDF2CC2
:1009A000370A031DD42CD52CDD2C0030AC000030D0
:1009B000AB000030AA000030A900AB17E72C0030D4
:1009C000AC000030AB000030AA000030A9003708AE
:1009D0000319EB2CEC2CF12C3808031DF02CF12C16
:1009E000FA2C0030A8000030A7000030A60000302C
:1009F000A500ED2F2508AD002D08F0002B080A16E4
:100A00008A11B9250A128A11710883120313BE00D4
:100A10007008BD003D08AD00AE01AF01B001300867
:100A2000B6002F08B5002E08B4002D08B3003E080C
:100A3000AD00AE01AF01B0013008BC002F08BB0013
:100A40002E08BA002D08B9002608AD002D08F000C8
:100A50002A080A168A11B9250A128A117108831206
:100A60000313BE007008BD003D08AD00AE01AF012C
:100A7000B0012D08B3072E0803110318013E031916
:100A8000422DB4072F0803110318013E0319492D05
:100A9000B507300803110318013E0319502DB6079E
:100AA0003E08AD00AE01AF01B0012D08B9072E0818
:100AB00003110318013E03195E2DBA072F08031115
:100AC0000318013E0319652DBB07300803110318F5
:100AD000013E03196C2DBC072708AD002D08F0005E
:100AE00029080A168A11B9250A128A117108831277
:100AF0000313BE007008BD003D08AD00AE01AF019C
:100B0000B0012D08B3072E0803110318013E031985
:100B10008A2DB4072F0803110318013E0319912DE4
:100B2000B507300803110318013E0319982DB607C5
:100B30003E08AD00AE01AF01B0012D08B9072E0887
:100B400003110318013E0319A62DBA072F0803113C
:100B50000318013E0319AD2DBB073008031103181C
:100B6000013E0319B42DBC070830AD000310B30DCE
:100B7000B40DB50DB60DAD0BB62D2608AD002D0884
:100B8000F00029080A168A11B9250A128A1171087B
:100B900083120313BE007008BD003D08AD003E087F
:100BA000AE00AF01B0012D08B3072E0803110318E2
:100BB000013E0319DC2DB4072F0803110318013E71
:100BC0000319E32DB507300803110318013E03197B
:100BD000EA2DB6072508AD002D08F0002A080A16F0
:100BE0008A11B9250A128A11710883120313BE00F3
:100BF0007008BD003D08AD003E08AE00AF01B00179
:100C00002D08B3072E0803110318013E0319092EFE
:100C1000B4072F0803110318013E0319102EB5075E
:100C2000300803110318013E0319172EB6070830C8
:100C3000AD000310B30DB40DB50DB60DAD0B192EEF
:100C40002508AD002D08F00029080A168A11B925DB
:100C50000A128A11710883120313BE007008BD00C6
:100C60003D08AD003E08AE00AF01B0012D08B3074E
:100C70002E0803110318013E03193F2EB4072F0855
:100C800003110318013E0319462EB507300803115E
:100C90000318013E03194D2EB6072608AD002D0896
:100CA000F0002B080A168A11B9250A128A11710858
:100CB00083120313BE007008BD003D08AD003E085E
:100CC000AE00AF01B0012D08B9072E0803110318BB
:100CD000013E03196C2EBA072F0803110318013EB9
:100CE0000319732EBB07300803110318013E0319C3
:100CF0007A2EBC072708AD002D08F0002A080A1636
:100D00008A11B9250A128A11710883120313BE00D1
:100D10007008BD003D08AD003E08AE00AF01B00157
:100D20002D08B9072E0803110318013E0319992E47
:100D3000BA072F0803110318013E0319A02EBB07A1
:100D4000300803110318013E0319A72EBC0727081A
:100D5000AD002D08F0002B080A168A11B9250A12D9
:100D60008A11710883120313BE007008BD003D088C
:100D7000AD003E08AE00AF01B00108300310AD0D6C
:100D8000AE0DAF0DB00DFF3E031DBE2E2D08B907F1
:100D90002E0803110318013E0319CF2EBA072F089E
:100DA00003110318013E0319D62EBB0730080311A7
:100DB0000318013E0319DD2EBC073308AD003408CB
:100DC000AE003508AF003608B00018300310B00C84
:100DD000AF0CAE0CAD0CFF3E031DE62E2D08B9077F
:100DE0002E0803110318013E0319F72EBA072F0826
:100DF00003110318013E0319FE2EBB07300803112F
:100E00000318013E0319052FBC070830AD0003107D
:100E1000B30DB40DB50DB60DAD0B072F3808370760
:100E2000AD00AE01AE0D2D08823EBD002E080318A8
:100E3000013EFF3EBE00392F0130AD000310B90D59
:100E4000BA0DBB0DBC0DAD0B1E2FB61F282F292FC1
:100E50002A2F39140130AD000310B30DB40DB50DB8
:100E6000B60DAD0B2C2FFF30BD070318BE0AFF30A7
:100E7000BE07BB1F3C2F3D2F1C2FB701B61F412FB4
:100E8000422F5E2FFF303305AD00FF303405AE003A
:100E9000FF303505AF007F303605B00030082F0435
:100EA0002E042D040319552F562F592FB701B70AB9
:100EB0005E2F391C5C2F5D2F5E2F562F37080319CC
:100EC000622F632F942F0130B907003003180130CF
:100ED000BA07003003180130BB0700300318013097
:100EE000BC073C1C742F752F942F3908AD003A08AD
:100EF000AE003B08AF003C08B0000130B100300D3F
:100F0000B00CAF0CAE0CAD0CB10B7F2F3008BC0099
:100F10002F08BB002E08BA002D08B9000130BD070C
:100F20000318BE0A0030BE073E08803AFF0080303A
:100F30007F02031D9D2FFF303D02031CA02FA12F18
:100F4000AC2F7F3083120313BC008030BB00003015
:100F5000BA000030B900E12F831203133E08803A33
:100F6000FF0080307F02031DB72F01303D020318C0
:100F7000BA2FBB2FC72F003083120313BC000030E1
:100F8000BB000030BA000030B900B201E12F83127B
:100F900003133D08AD002D08B800FF30B905FF3040
:100FA000BA057F30BB050030BC05381CD82FD92FBF
:100FB000DA2FBB173808AD0003102D0CAE002E0839
:100FC000BC003208AD002D08BC043C08A8003B085A
:100FD000A7003A08A6003908A500080083120313E9
:100FE000EF0183160313E201E301E401E501E601E9
:100FF000E701E801E901EA0183010A128A11B02937
:1010040001300A168A1136260A128A150830F400AD
:10101400C930F300F30B0C28F40B0C28112808003A
:10102400803083160313A306270883120313DC00FE
:1010340083160313260883120313DB00831603139A
:10104400250883120313DA0083160313240883127A
:101054000313D90083160313230883120313E00038
:1010640083160313220883120313DF00831603136A
:10107400210883120313DE0083160313200883124E
:101084000313DD000A128A1578250A128A158312C1
:1010940003135C0883160313A300831203135B0872
:1010A40083160313A200831203135A08831603132F
:1010B400A10083120313590883160313A000080028
:1010C40000307005F80000307105F90080307205B9
:1010D400FA007F307305FB007B087A0479047804F6
:1010E400031D752876287E280030F3000030F200B6
:1010F4000030F1000030F00000307405F8000030DA
:101104007505F90080307605FA007F307705FB001D
:101114007B087A0479047804031D912892289A287C
:101124000030F7000030F6000030F5000030F40025
:10113400F31F9D289E28C2280030F8000030F900D3
:101144000030FA008030FB007008F8027108031CBC
:10115400710FAD28AE28F9027208031C720FB32870
:10116400B428FA027308031C730FB928BA28FB02C7
:101174007B08F3007A08F2007908F1007808F0009F
:10118400F71FC528C628EA280030F8000030F90007
:101194000030FA008030FB007408F8027508031C64
:1011A400750FD528D628F9027608031C760FDB289C
:1011B400DC28FA027708031C770FE128E228FB02F7
:1011C4007B08F7007A08F6007908F5007808F4003F
:1011D4008030F3068030F70677087302031DFC287D
:1011E40076087202031DFC2875087102031DFC2891
:1011F400740870020318FF28002902290310032928
:1012040003140800F8007808031909290A291E297B
:10121400F31F0D290E291E297009FA007109FB001C
:101224007209FC007309FD00FA0A0319FB0A031989
:10123400FC0A0319FD0A26297308FD007208FC0044
:101244007108FB007008FA007308720471047004DA
:10125400031D2D292E2937290030F3000030F20018
:101264000030F1000030F000BD299630F40074081D
:10127400F90049290130F4007408F907013003101A
:10128400FD0CFC0CFB0CFA0CFF3E031D4129FE3047
:101294007D05031D4E294F293C296B290130F4009B
:1012A4007408F9070130FA07003003180130FB070E
:1012B400003003180130FC07003003180130FD072B
:1012C40001300310FD0CFC0CFB0CFA0CFF3E031D5B
:1012D4006329FF307D05031D7029712950297D295B
:1012E4000130F9020130F4000310FA0DFB0DFC0D7E
:1012F400FD0DF40B7629FC1B8029812987290230F6
:101304007902031886298729722979188A298B2951
:101314009329FF30FA05FF30FB057F30FC05FF30D1
:10132400FD050310F90C7908F400F501F601F70145
:1013340018300310F40DF50DF60DF70DFF3E031DE7
:101344009B297408FA047508FB047608FC047708E2
:10135400FD0478080319AF29B029B529F31FB3296F
:10136400B429B529FD177D08F3007C08F2007B0839
:10137400F1007A08F0000800831603132508A7007B
:1013840001300310A70DFF3E031DC3290310270DD1
:10139400240784000A168A110A200A128A15A80052
:1013A4000A168A110A200A128A15A9000A168A1135
:1013B4000A200A128A15AA000A168A110A200A1299
:1013C4008A15AB002B08AF002A08AE002908AD002F
:1013D4002808AC00892AFF30A5070318A60AFF30A5
:1013E400A6072508A70001300310A70DFF3E031D23
:1013F400F6290310270D240784000A168A110A20EF
:101404000A128A15A8000A168A110A200A128A15D5
:10141400A9000A168A110A200A128A15AA000A16B5
:101424008A110A200A128A15AB002B0883120313AF
:10143400DC00831603132A0883120313DB008316CC
:101444000313290883120313DA00831603132808ED
:1014540083120313D900831603132F088312031373
:10146400A800831603132E0883120313A700831600
:1014740003132D0883120313A600831603132C08E9
:1014840083120313A5008316031323088312031383
:10149400AC0083160313220883120313AB008316D4
:1014A4000313210883120313AA00831603132008CD
:1014B40083120313A9000A128A118D240A128A15B1
:1014C400831203132808E0002708DF002608DE0043
:1014D4002508DD000A128A1578250A128A15831256
:1014E40003135C0883160313AF00831203135B0812
:1014F40083160313AE00831203135A0883160313CF
:10150400AD0083120313590883160313AC00250896
:101514002604031D8E2A8F2AED292F08A3002E08E6
:10152400A2002D08A1002C08A000080083160313B4
:10153400BE00B230B6003608BB00842B25303F060F
:101544000319A52AA62AB22A3F08B6003E08840039
:101554003608831380000130B6003608BE07842B9A
:10156400B901CB2A3B08840083130008B60036086F
:10157400BF000230B6003608BB073F08B6003E087D
:1015840084003608831380000130B6003608BE0795
:10159400842B0130B107FF30310784000A168A1109
:1015A4000A200A128A15BF00B600B7013708003AAC
:1015B4000319DD2ABF2A3608003A0319962B633A29
:1015C4000319B42A073A0319EB2A0D3A0319EB2A33
:1015D400BF2A3B08840083130008BC00840A000867
:1015E400BD000230B6003608BB07BD1FFA2AFB2A2D
:1015F400042B0330B6003608B904BC09BD09BC0A83
:101604000319BD0ABF01BF0A3F08B6003607013EF1
:1016140084000A168A110A200A128A15B7000A16CB
:101624008A110A200A128A15B80038083D02031DDF
:101634001D2B37083C020318202B212B222B2C2B8B
:101644000130B6003608BF0705303F06031D2B2BBB
:101654002C2B062B390803390319312B322B3D2B44
:101664002D30B6003E088400360883138000013014
:10167400B6003608BE073F08B6003608BA007B2B12
:101684000A30F8000030F9003A08B6003607013E87
:1016940084000A168A110A200A128A15F0000A1612
:1016A4008A110A200A128A15F1003D08F3003C0849
:1016B400F2000A168A11DC260A128A157108FB0048
:1016C4007008FA000A168A11A2260A128A157808E6
:1016D400303E83160313B7003708BF003F08B60037
:1016E4003E0884003608831380000130B6003608B3
:1016F400BE07FF30B6003608BA073A0A031D832B2B
:10170400842B422B0130B107FF30310784000A16C5
:101714008A110A200A128A15B6003608BF003F084B
:10172400031D952B962BA02A3E0884008313800169
:1017340008008312031346088039C7004708D00005
:101744004608C7004707C8004808D700C51FAB2B89
:10175400AC2BAD2B571457080319B12BB22BC22B4A
:10176400570A031DB62BB72BBF2B0030C600003021
:10177400C5000030C4000030C300C517C601CA2B21
:101784000030C6000030C5000030C4000030C30083
:1017940042088039C7004708D0064208C7004707F7
:1017A400C8004808D800C11FD82BD92BDA2B5814ED
:1017B40058080319DE2BDF2BEF2B580A031DE32BEC
:1017C400E42BEC2B0030C2000030C1000030C0001C
:1017D4000030BF00C117C201F72B0030C200003037
:1017E400C1000030C0000030BF0042084104400482
:1017F4003F04031DFE2BFF2B182C0030C6000030C5
:10180400C5000030C4000030C3008030C5047F3000
:10181400C6045008C7004708C6044608C200450865
:10182400C1004408C0004308BF00772D5708031DBA
:101834001C2C1D2C262C0030C2000030C1000030AE
:10184400C0000030BF00772D5708C700C801480802
:10185400CA0058084702C900031CCA0349087F3E4E
:10186400D1004A080318013E003ED2004608CF00CA
:101874004508CE004408CD004308CC000030C60023
:101884000030C5000030C4000030C3000030D60072
:101894000030D5000030D4000030D300D8019C2C97
:1018A40058080319562C572C772C0130C700031005
:1018B400CC0DCD0DCE0DCF0DC70B592C0130C7006B
:1018C4000310C30DC40DC50DC60DC70B622CD61F66
:1018D4006C2C6D2C6E2C43140130C7000310D30DF7
:1018E400D40DD50DD60DC70B702C42084F02031D25
:1018F400852C41084E02031D852C40084D02031D12
:10190400852C3F084C02031C882C892C982C5617D4
:101914003F08CC024008031C400FCD024108031CC1
:10192400410FCE024208031C420FCF020130C70010
:101934004708D8071A305802031CA12CA22C522C99
:101944004F084E044D044C040319A92CAA2CC92C8D
:101954005314C92C0130C7000310C30DC40DC50DA9
:10196400C60DC70BAE2CD61FB82CB92CBA2C4314F9
:101974000130C7000310D30DD40DD50DD60DC70B00
:10198400BC2CFF30D1070318D20AFF30D207C51F81
:10199400CC2CCD2CAC2CD801D61FD12CD22CEE2C97
:1019A400FF305305C700FF305405C800FF3055050C
:1019B400C9007F305605CA004A0849044804470450
:1019C4000319E52CE62CE92CD801D80AEE2C431C8B
:1019D400EC2CED2CEE2CE62C58080319F22CF32CED
:1019E400242D0130C307003003180130C407003030
:1019F40003180130C507003003180130C607461C20
:101A0400042D052D242D4308C7004408C8004508AB
:101A1400C9004608CA000130CB004A0DCA0CC90CE3
:101A2400C80CC70CCB0B0F2D4A08C6004908C500CB
:101A34004808C4004708C3000130D1070318D20A7C
:101A44000030D2075208803AFF0080307F02031D25
:101A54002D2DFF305102031C302D312D3F2DFF3031
:101A640083120313D1000030D2000030C6000030CE
:101A7400C5000030C4000030C300831203135208B1
:101A8400803AFF0080307F02031D4A2D013051024D
:101A940003184D2D4E2D5B2D83120313D101D2015A
:101AA4000030C6000030C5000030C4000030C30060
:101AB400D001831203135108C7004708D700571CED
:101AC400642D652D672DC5176B2D7F30C700470822
:101AD400C5055708C7000310470CC8004808C600CE
:101AE4005008C7004708C6040F2C080083120313CC
:101AF4005C088039E1006108E9005C08E1006107E5
:101B0400E2006208EB00DB1F882D892D8A2D6B14FF
:101B14006B0803198E2D8F2D9F2D6B0A031D932D9A
:101B2400942D9C2D0030DC000030DB000030DA0006
:101B34000030D900DB17DC01A72D0030DC000030B9
:101B4400DB000030DA000030D90060088039E100A1
:101B54006108EA006A0869060319B12DB22DB32D94
:101B640069176008E1006107E2006208EA00DF1F0C
:101B7400BC2DBD2DBE2D6A146A080319C22DC32DB8
:101B8400D32D6A0A031DC72DC82DD02D0030E000C7
:101B94000030DF000030DE000030DD00DF17E00140
:101BA400DB2D0030E0000030DF000030DE000030CC
:101BB400DD006B086A020318E02DE12D252E691F54
:101BC400E42DE52DE92D8030E1006108E9066B087C
:101BD400E1006108EC006A08E1006108EB006C08B0
:101BE400E1006108EA005908E1006108EC005D08C1
:101BF400E1006108D9006C08E1006108DD005A08C1
:101C0400E1006108EC005E08E1006108DA006C089C
:101C1400E1006108DE005B08E1006108EC005F0898
:101C2400E1006108DB006C08E1006108DF005C088A
:101C3400E1006108EC006008E1006108DC006C0868
:101C4400E1006108E000EC016A08E100E2016208D9
:101C5400E4006B086102E300031CE4036408803AB7
:101C6400FF0080307F02031D392E1A306302031CEB
:101C74003C2E3D2E7A2E831203135C085B045A0417
:101C84005904031D462E482E0130492E0030E10030
:101C94006108EC000030DC000030DB000030DA00CA
:101CA4000030D9006A08E1006108EB00822E6C1C48
:101CB4005C2E5D2E662E6C08E1000310610C013869
:101CC400E2006208EC00682E0310EC0C591C6B2E29
:101CD4006C2E6D2EEC170130E1005C0DDC0CDB0C7E
:101CE400DA0CD90CE10B6F2E0130E1006108EB072F
:101CF400831203136A086B02031C812E822E592E51
:101D0400691B852E862ED12E6B08031D8A2E8B2EE1
:101D1400942E0030DC000030DB000030DA000030AC
:101D2400D900FF2F5D08D9075E0803110318013E8F
:101D340003199D2EDA075F0803110318013E0319E6
:101D4400A42EDB07600803110318013E0319AB2E10
:101D5400DC075C1CAE2EAF2E852F6C1CB22EB32E6E
:101D6400BC2E6C08E1000310610C0138E20062082B
:101D7400EC00BE2E0310EC0C591CC12EC22EC32E37
:101D8400EC170130E1005C0DDC0CDB0CDA0CD90C37
:101D9400E10BC52E0130E1006108EB07852F5C08DB
:101DA400803AFF006008803A7F02031DE32E5F083B
:101DB4005B02031DE32E5E085A02031DE32E5D0839
:101DC40059020318E62EE72E3F2FFF30E100FF30C3
:101DD400E200FF30E300FF30E4005D08E5005E0848
:101DE400E6005F08E7006008E8005908E5025A08C1
:101DF400031C5A0FFE2EFF2EE6025B08031C5B0F2A
:101E0400042F052FE7025C08031C5C0F0A2F0B2F1D
:101E1400E8026508E10766080318660F122F132FFE
:101E2400E20767080318670F182F192FE3076808DC
:101E34000318680AE4076408DC006308DB0062082E
:101E4400DA006108D9008030E1006108E906EC0994
:101E5400EC0A6C08031D2F2F302F4D2F0130D907AA
:101E6400003003180130DA07003003180130DB07B3
:101E7400003003180130DC074D2F5D08D9025E08DD
:101E8400031C5E0FDA025F08031C5F0FDB026008AD
:101E9400031C600FDC025C085B045A045904031D34
:101EA400542F552F812F6C08031D592F5A2F812F22
:101EB4000030DC000030DB000030DA000030D900F4
:101EC400FF2F0130E1000310D90DDA0DDB0DDC0D1D
:101ED400E10B652FEC1F6F2F702F712F59146C1CA1
:101EE400742F752F782F0314EC0D7A2F0310EC0D3B
:101EF4006B0803197E2F7F2F812F0130EB02DB1F2C
:101F0400842F852F632FEA01EC1F892F8A2F982FA6
:101F14006C087F3903198F2F902F932FEA01EA0A57
:101F2400982F591C962F972F982F902F6A080319D2
:101F34009C2F9D2FD12F0130D90700300318013079
:101F4400DA07003003180130DB07003003180130D2
:101F5400DC075C1CAE2FAF2FD12F5908E1005A08C3
:101F6400E2005B08E3005C08E4000130E500640D76
:101F7400E40CE30CE20CE10CE50BB92F6408DC0083
:101F84006308DB006208DA006108D9006B0A0319F0
:101F9400CC2FCD2FD12F0130E1006108EB076B0A64
:101FA4000319D52FD62FDB2F6B08031DDA2FDB2F58
:101FB400E92F0030DC000030DB000030DA000030B4
:101FC400D9006B08031DE72FE82FE92FE9016B1CEB
:101FD400EC2FED2FEF2FDB17F32F7F30E10061089B
:101FE400DB056B08E1000310610CE2006208DC0011
:101FF400E91FFD2FFE2FFF2FDC170800FF1B0A2807
:1020040083137F1883170008840A0319FF0A080042
:1020140010308A000408840A820700340134003432
:102024000A34003464340034E8340334103427347C
:102034000034003400340034C434FF347F343F347B
:102044008034EF34FF34BE349034E134A9343E3468
:10205400EC3482347634BE348234AD342B343E34A2
:102064000E343C34C334BD348734D13413343D345A
:1020740041347834D334BB344434693473346D34E8
:1020840069346E34753469347234203454346534AC
:102094006D3470340034413475346D3465346E34C9
:1020A4007434613472342034543465346D3470348F
:1020B40000344134643465346334753461346434D5
:1020C40061340034543445344D3450343A3400349B
:1020D40025346434253463344334003420342034C8
:0220E4000034C6
:102B2600A82D7408FF00730884000A168A11002075
:102B36000A168A110A168A116C260A168A1101309B
:102B4600F3070318F40A0030F4077408831203131A
:102B5600FF00730884000A168A1100200A168A11DB
:102B6600003A031DB72DB82D942D0800F800F40186
:102B7600F5017008F200F3017208F6007308F70019
:102B8600781CC62DC72DCD2D7608F4070318F50A37
:102B96007708F50701300310F60DF70DFF3E031D0C
:102BA600CE2D0310F80C7808031DDA2DDB2DC32D6E
:102BB6007508F1007408F0000800831603138801F5
:102BC6002730F400F530F300F30BE72DF40BE72D77
:102BD60002300A168A1136260A168A1128300A1673
:102BE6008A1136260A168A1101300A168A113626E5
:102BF6000A168A110C300A168A1136260A168A1106
:102C060006300A168A1136260A168A110800F800B6
:102C1600023078020318102E112E1E2E75080F3959
:102C26008038F7007708F90079080A168A113626DF
:102C36000A168A112A2E75080F39C038F700770848
:102C4600F90079080A168A1136260A168A117608B4
:102C5600F3000030031D8030F4000A168A11932514
:102C66000A168A110800F200F0307205F00083128D
:102C7600031308080F397004880008108814000030
:102C86008312031388100330F1009730F000F00B25
:102C96004A2EF10B4A2E4F2E7208F0000430031014
:102CA600F00DFF3E031D522E8312031308080F3941
:102CB60070048800881400008312031388100830FB
:102CC600F100C930F000F00B662EF10B662E6B2E6C
:102CD6000800F200F0307205F000831203130808B2
:102CE6000F39700488000814881400008312031337
:102CF60088100330F1009730F000F00B802EF10BB6
:102D0600802E852E7208F00004300310F00DFF3E71
:102D1600031D882E8312031308080F3970048800D8
:102D2600881400008312031388100830F100C9309C
:102D3600F000F00B9C2EF10B9C2EA12E08007808BB
:102D460079040319A72EA82ED72EFD01FD0AB62E4B
:102D560001300310F80DF90DFF3E031DAC2E0130B6
:102D6600FC007C08FD07F91FB92EBA2EAB2E790898
:102D76007B02031DC02E78087A02031CC32EC42EC4
:102D8600CA2E7808FA027908031CFB03FB020130FD
:102D96000310F90CF80CFF3E031DCB2E0130FD028B
:102DA600031DD62ED72EBA2E7B08F9007A08F80016
:102DB6000800F501F601700871040319E32EE42EEC
:102DC6001B2FF701F70AF22E01300310F00DF10D5B
:102DD600FF3E031DE82E0130F4007408F707F11FCB
:102DE600F52EF62EE72E01300310F50DF60DFF3EFB
:102DF600031DF72E71087302031D032F700872025C
:102E0600031C062F072F0E2F7008F2027108031CF1
:102E1600F303F302751401300310F10CF00CFF3EBE
:102E2600031D0F2F0130F702031D1A2F1B2FF62E3D
:102E36007608F1007508F000080000307005F8000B
:102E460000307105F90080307205FA007F30730595
:102E5600FB007B087A0479047804031D332F342F92
:102E66003C2F0030F3000030F2000030F10000305B
:102E7600F00000307405F80000307505F900803068
:102E86007605FA007F307705FB007B087A04790423
:102E96007804031D4F2F502F582F0030F7000030B5
:102EA600F6000030F5000030F40077087306031DC5
:102EB600662F76087206031D662F75087106031DB8
:102EC600662F740870060319692F6A2F6C2F03107A
:102ED6006D2F031408000310831603132A0D2B0D00
:102EE600AC002C0883120313EE006E08031D7C2F22
:102EF6007D2F882F003083160313AB000030AA0005
:102F06000030A9000030A800FF2F831603132808FD
:102F1600AC002908AD002A08AE002B08AF001F3010
:102F26000310AF0CAE0CAD0CAC0CFF3E031D932F83
:102F36002C08B000300883120313ED008316031328
:102F4600AA17FF30A805FF30A905FF30AA050030F3
:102F5600AB05963083120313EE02EE1FB32FB42F88
:102F6600D22F6E08803A973E0318BA2FBB2FBC2F7C
:102F76007D2F0130031083160313AB0CAA0CA90C8A
:102F8600A80CFF3E031DBD2F0130AC002C08831298
:102F96000313EE07031DD02FD12FBC2FED2F2030AA
:102FA6006E02031CD72FD82FE82F7D2F01308316F2
:102FB6000313AC000310A80DA90DAA0DAB0DAC0BA5
:102FC600DD2F013083120313EE026E08031DEC2F72
:102FD600ED2FD92F6D080319F12FF22FFF2F83162E
:102FE6000313A809A909AA09AB09A80A0319A90A7A
:0A2FF6000319AA0A0319AB0A080028
:08400000FF3FFF3FFF3FFF3FC0
:04400E00D520FF3F7B
:00000001FF
