:060000000A128A11FC2F18
:100F5A007130831603138F008312031387018316DC
:100F6A00031307148711071283120313071087113B
:100F7A00071283120313071CC32FC42FE62F8715EA
:100F8A000430F2000C30F1003330F000F00BCB2FBC
:100F9A00F10BCB2FF20BCB2FD22F83120313071691
:100FAA000B30F2002630F1005D30F000F00BDB2F41
:100FBA00F10BDB2FF20BDB2FE22F83120313071245
:100FCA00BE2F0718E92FEA2FBE2F87110430F2002F
:100FDA000C30F1003330F000F00BF12FF10BF12F50
:100FEA00F20BF12FF82FBE2F0A128A110028830163
:060FFA000A128A11AD2F5E
:08400000FF3FFF3FFF3FFF3FC0
:04400E00D520FF3F7B
:00000001FF
