:060000000A128A11DE2F36
:10076A000134013400340034003471308316031329
:10077A008F008801831203138801831603138617D7
:10078A00061381139517151783120313861BCE2B95
:10079A00CF2B032C8230FC00DD30FB00FB0BD32B6C
:1007AA00FC0BD32BD82B0130FB007B08FD0706304E
:1007BA007D06031DE12BE22B032CFD01FD0A032C10
:1007CA000A128A111F240A128A11C92B0A128A11C3
:1007DA003A260A128A11C92B0A128A11D1240A123C
:1007EA008A11C92B0A128A1100270A128A11C92BE7
:1007FA000A128A1184250A128A11C92B7D08FB0064
:10080A00FC017C08003A03190B2CC92B7B08013A1E
:10081A000319E52B033A0319EB2B013A0319F12BC0
:10082A00073A0319F72B013A0319FD2BC92B0A12B0
:10083A008A110028F301F4017408803AFF0080301D
:10084A007F02031D2A2C08307302031C2D2C2E2C28
:10085A002F2CD02C0130F000730A352C0310F00D28
:10086A00FF3E031D332C70088312031388002003F4
:10087A00210422042304031D432C442C4E2C8230D1
:10088A00F100DD30F000F00B482CF10B482C4D2C18
:10089A00972C023083120313200621042204230416
:1008AA00031D582C592C672C0230F2000430F10039
:1008BA00BA30F000F00B5F2CF10B5F2CF20B5F2CBF
:1008CA000000972C0330831203132006210422040C
:1008DA002304031D712C722C7F2C0330F200083084
:1008EA00F1007730F000F00B782CF10B782CF20B3A
:1008FA00782C972C04308312031320062104220437
:10090A002304031D892C8A2C972C0530F2000F3002
:10091A00F100F130F000F00B902CF10B902CF20B5F
:10092A00902C972C83120313061B9C2C9D2CC92CEC
:10093A008230F100DD30F000F00BA12CF10BA12C7C
:10094A00A62C013083120313A007003003180130CC
:10095A00A107003003180130A20700300318013044
:10096A00A30705302006210422042304031DBE2CFC
:10097A00BF2CC92C003083120313A3000030A2003D
:10098A000030A1000130A0000130F3070318F40A77
:10099A000030F407212C0800F301F4017408803AAE
:1009AA00FF0080307F02031DDC2C09307302031C18
:1009BA00DF2CE02CE12C832D0130F000730AE72CA8
:1009CA000310F00DFF3E031DE52C7008FF3E831255
:1009DA00031388002003210422042304031DF62C98
:1009EA00F72C012D8230F100DD30F000F00BFB2CEA
:1009FA00F10BFB2C002D4A2D023083120313200623
:100A0A00210422042304031D0B2D0C2D1A2D023060
:100A1A00F2000430F100BA30F000F00B122DF10BA5
:100A2A00122DF20B122D00004A2D033083120313EC
:100A3A002006210422042304031D242D252D322DF2
:100A4A000330F2000830F1007730F000F00B2B2D64
:100A5A00F10B2B2DF20B2B2D4A2D0430831203138D
:100A6A002006210422042304031D3C2D3D2D4A2D7A
:100A7A000530F2000F30F100F130F000F00B432D99
:100A8A00F10B432DF20B432D4A2D83120313061B40
:100A9A004F2D502D7C2D8230F100DD30F000F00B0F
:100AAA00542DF10B542D592D013083120313A00735
:100ABA00003003180130A107003003180130A207E3
:100ACA00003003180130A307053020062104220450
:100ADA002304031D712D722D7C2D00308312031304
:100AEA00A3000030A2000030A1000130A0000130B4
:100AFA00F3070318F40A0030F407D32C0800F301B3
:100B0A00F4017318892D8A2D8F2DAA3083120313AD
:100B1A008800972D731C922D932D972D5530831293
:100B2A0003138800831203132003210422042304DD
:100B3A00031DA02DA12DAB2D8230F100DD30F00078
:100B4A00F00BA52DF10BA52DAA2DF42D0230831241
:100B5A0003132006210422042304031DB52DB62DF8
:100B6A00C42D0230F2000430F100BA30F000F00B6C
:100B7A00BC2DF10BBC2DF20BBC2D0000F42D033063
:100B8A00831203132006210422042304031DCE2DFD
:100B9A00CF2DDC2D0330F2000830F1007730F00061
:100BAA00F00BD52DF10BD52DF20BD52DF42D0430EC
:100BBA00831203132006210422042304031DE62DB5
:100BCA00E72DF42D0530F2000F30F100F130F0007E
:100BDA00F00BED2DF10BED2DF20BED2DF42D831213
:100BEA000313061BF92DFA2D262E8230F100DD3073
:100BFA00F000F00BFE2DF10BFE2D032E01308312B7
:100C0A000313A007003003180130A10700300318AE
:100C1A000130A207003003180130A307053020066F
:100C2A00210422042304031D1B2E1C2E262E003011
:100C3A0083120313A3000030A2000030A100013088
:100C4A00A0000130F3070318F40A0030F40774080F
:100C5A00803AFF0080307F02031D352E0830730270
:100C6A00031C382E392E862D0800F501F6010730AF
:100C7A00F3000030F4007608803AFF0080307F02EB
:100C8A00031D492E08307502031C4C2E4D2E4E2E84
:100C9A00FF2E0130F000750A542E0310F00DFF3EAE
:100CAA00031D522E0130F100730A5D2E0310F10D5F
:100CBA00FF3E031D5B2E7108700783120313880021
:100CCA002003210422042304031D6C2E6D2E772E8B
:100CDA008230F100DD30F000F00B712EF10B712E35
:100CEA00762EC02E0230831203132006210422041A
:100CFA002304031D812E822E902E0230F20004302E
:100D0A00F100BA30F000F00B882EF10B882EF20BAE
:100D1A00882E0000C02E03308312031320062104FC
:100D2A0022042304031D9A2E9B2EA82E0330F200C0
:100D3A000830F1007730F000F00BA12EF10BA12E54
:100D4A00F20BA12EC02E04308312031320062104B5
:100D5A0022042304031DB22EB32EC02E0530F20046
:100D6A000F30F100F130F000F00BB92EF10BB92E73
:100D7A00F20BB92EC02E83120313061BC52EC62EE4
:100D8A00F22E8230F100DD30F000F00BCA2EF10BAA
:100D9A00CA2ECF2E013083120313A0070030031886
:100DAA000130A107003003180130A20700300318F0
:100DBA000130A30705302006210422042304031D61
:100DCA00E72EE82EF22E003083120313A300003020
:100DDA00A2000030A1000130A0000130F50703187D
:100DEA00F60A0030F607FF30F3070318F40AFF305B
:100DFA00F407402E0800F701F801F901FA01F5019C
:100E0A00F60179087707831203138800750AF00040
:100E1A000130F1000030F200152F0310F10DF20D30
:100E2A00F00B122F0F307105F30000307205F40039
:100E3A007308F7070318F80A7408F8077508073CD7
:100E4A00F000F00A0130F1000030F2002F2F0310F9
:100E5A00F10DF20DF00B2C2FF0307105F30000307C
:100E6A007205F4007308F9070318FA0A7408FA07F6
:100E7A002003210422042304031D442F452F4F2F4E
:100E8A008230F100DD30F000F00B492FF10B492FD1
:100E9A004E2F982F023083120313200621042204B6
:100EAA002304031D592F5A2F682F0230F2000430F1
:100EBA00F100BA30F000F00B602FF10B602FF20B4B
:100ECA00602F0000982F0330831203132006210499
:100EDA0022042304031D722F732F802F0330F20084
:100EEA000830F1007730F000F00B792FF10B792FF1
:100EFA00F20B792F982F0430831203132006210452
:100F0A0022042304031D8A2F8B2F982F0530F20009
:100F1A000F30F100F130F000F00B912FF10B912F0F
:100F2A00F20B912F982F83120313061B9D2F9E2FCE
:100F3A00CA2F8230F100DD30F000F00BA22FF10B46
:100F4A00A22FA72F013083120313A0070030031822
:100F5A000130A107003003180130A207003003183E
:100F6A000130A30705302006210422042304031DAF
:100F7A00BF2FC02FCA2F003083120313A3000030E3
:100F8A00A2000030A1000130A0000130F5070318CB
:100F9A00F60A0030F6077608803AFF0080307F02B2
:100FAA00031DD92F05307502031CDC2FDD2F062FF8
:100FBA0008000A128A11B6230A128A11A0000A121C
:100FCA008A11B7230A128A11A1000A128A11B823B8
:100FDA000A128A11A2000A128A11B9230A128A1164
:100FEA00A3000A128A11B5230A128A11FD0083018D
:060FFA000A128A11BA2B55
:08400000FF3FFF3FFF3FFF3FC0
:04400E00D520FF3F7B
:00000001FF
