:060000000A128A11D42F40
:100008003034303464008001840A04060319003453
:10001800040607288312031346088039C7004708D7
:10002800D0004608C7004707C8004808D700C51FC2
:100038001E281F2820285714570803192428252864
:100048003528570A031D29282A2832280030C600D7
:100058000030C5000030C4000030C300C517C60119
:100068003D280030C6000030C5000030C400003014
:10007800C30042088039C7004708D0064208C700B5
:100088004707C8004808D800C11F4B284C284D28EE
:10009800581458080319512852286228580A031D71
:1000A800562857285F280030C2000030C1000030B1
:1000B800C0000030BF00C117C2016A280030C2006A
:1000C8000030C1000030C0000030BF0042084104C9
:1000D80040043F04031D712872288B280030C60095
:1000E8000030C5000030C4000030C3008030C504B3
:1000F8007F30C6045008C7004708C6044608C20037
:100108004508C1004408C0004308BF00EA29570851
:10011800031D8F28902899280030C2000030C100A4
:100128000030C0000030BF00EA295708C700C801E6
:100138004808CA0058084702C900031CCA034908EE
:100148007F3ED1004A080318013E003ED20046080F
:10015800CF004508CE004408CD004308CC0000304D
:10016800C6000030C5000030C4000030C3000030B5
:10017800D6000030D5000030D4000030D300D801BC
:100188000F2958080319C928CA28EA280130C700C6
:100198000310CC0DCD0DCE0DCF0DC70BCC280130E3
:1001A800C7000310C30DC40DC50DC60DC70BD52858
:1001B800D61FDF28E028E12843140130C7000310C8
:1001C800D30DD40DD50DD60DC70BE32842084F0229
:1001D800031DF82841084E02031DF82840084D0267
:1001E800031DF8283F084C02031CFB28FC280B2998
:1001F80056173F08CC024008031C400FCD024108A7
:10020800031C410FCE024208031C420FCF020130EB
:10021800C7004708D8071A305802031C14291529A3
:10022800C5284F084E044D044C0403191C291D29E8
:100238003C2953143C290130C7000310C30DC40DD9
:10024800C50DC60DC70B2129D61F2B292C292D29F1
:1002580043140130C7000310D30DD40DD50DD60DAE
:10026800C70B2F29FF30D1070318D20AFF30D20756
:10027800C51F3F2940291F29D801D61F44294529D0
:100288006129FF305305C700FF305405C800FF300F
:100298005505C9007F305605CA004A084904480474
:1002A80047040319582959295C29D801D80A612912
:1002B800431C5F29602961295929580803196529B0
:1002C800662997290130C307003003180130C40795
:1002D800003003180130C507003003180130C60785
:1002E800461C7729782997294308C7004408C8007D
:1002F8004508C9004608CA000130CB004A0DCA0C9F
:10030800C90CC80CC70CCB0B82294A08C60049087F
:10031800C5004808C4004708C3000130D1070318C6
:10032800D20A0030D2075208803AFF0080307F029C
:10033800031DA029FF305102031CA329A429B229B7
:10034800FF3083120313D1000030D2000030C60002
:100358000030C5000030C4000030C300831203130E
:100368005208803AFF0080307F02031DBD2901300A
:1003780051020318C029C129CE2983120313D101C0
:10038800D2010030C6000030C5000030C400003083
:10039800C300D001831203135108C7004708D700D0
:1003A800571CD729D829DA29C517DE297F30C70075
:1003B8004708C5055708C7000310470CC800480878
:1003C800C6005008C7004708C604822808008312E0
:1003D80003135C088039E1006108E9005C08E1006A
:1003E8006107E2006208EB00DB1FFB29FC29FD29FD
:1003F8006B146B080319012A022A122A6B0A031DBF
:10040800062A072A0F2A0030DC000030DB00003003
:10041800DA000030D900DB17DC011A2A0030DC00D2
:100428000030DB000030DA000030D9006008803985
:10043800E1006108EA006A0869060319242A252AE6
:10044800262A69176008E1006107E2006208EA00ED
:10045800DF1F2F2A302A312A6A146A080319352A1D
:10046800362A462A6A0A031D3A2A3B2A432A0030BA
:10047800E0000030DF000030DE000030DD00DF1774
:10048800E0014E2A0030E0000030DF000030DE00DE
:100498000030DD006B086A020318532A542A982A90
:1004A800691F572A582A5C2A8030E1006108E9064A
:1004B8006B08E1006108EC006A08E1006108EB00E4
:1004C8006C08E1006108EA005908E1006108EC00E5
:1004D8005D08E1006108D9006C08E1006108DD00F1
:1004E8005A08E1006108EC005E08E1006108DA00E2
:1004F8006C08E1006108DE005B08E1006108EC00BF
:100508005F08E1006108DB006C08E1006108DF00BA
:100518005C08E1006108EC006008E1006108DC00AB
:100528006C08E1006108E000EC016A08E100E20102
:100538006208E4006B086102E300031CE40364083A
:10054800803AFF0080307F02031DAC2A1A30630214
:10055800031CAF2AB02AED2A831203135C085B043C
:100568005A045904031DB92ABB2A0130BC2A003099
:10057800E1006108EC000030DC000030DB000030F6
:10058800DA000030D9006A08E1006108EB00F52ABA
:100598006C1CCF2AD02AD92A6C08E1000310610C00
:1005A8000138E2006208EC00DB2A0310EC0C591C4D
:1005B800DE2ADF2AE02AEC170130E1005C0DDC0CB2
:1005C800DB0CDA0CD90CE10BE22A0130E1006108FE
:1005D800EB07831203136A086B02031CF42AF52A3B
:1005E800CC2A691BF82AF92A442B6B08031DFD2A1B
:1005F800FE2A072B0030DC000030DB000030DA0078
:100608000030D900722C5D08D9075E080311031861
:10061800013E0319102BDA075F0803110318013E86
:100628000319172BDB07600803110318013E031990
:100638001E2BDC075C1C212B222BF82B6C1C252B7A
:10064800262B2F2B6C08E1000310610C0138E20007
:100658006208EC00312B0310EC0C591C342B352BA1
:10066800362BEC170130E1005C0DDC0CDB0CDA0CEE
:10067800D90CE10B382B0130E1006108EB07F82BAE
:100688005C08803AFF006008803A7F02031D562B01
:100698005F085B02031D562B5E085A02031D562B8A
:1006A8005D0859020318592B5A2BB22BFF30E10071
:1006B800FF30E200FF30E300FF30E4005D08E500B2
:1006C8005E08E6005F08E7006008E8005908E502F0
:1006D8005A08031C5A0F712B722BE6025B08031C85
:1006E8005B0F772B782BE7025C08031C5C0F7D2BD4
:1006F8007E2BE8026508E10766080318660F852B5C
:10070800862BE20767080318670F8B2B8C2BE307F0
:1007180068080318680AE4076408DC006308DB005B
:100728006208DA006108D9008030E1006108E90652
:10073800EC09EC0A6C08031DA22BA32BC02B01307B
:10074800D907003003180130DA07003003180130E8
:10075800DB07003003180130DC07C02B5D08D90225
:100768005E08031C5E0FDA025F08031C5F0FDB02E2
:100778006008031C600FDC025C085B045A0459041F
:10078800031DC72BC82BF42B6C08031DCC2BCD2BBA
:10079800F42B0030DC000030DB000030DA000030E1
:1007A800D900722C0130E1000310D90DDA0DDB0DF0
:1007B800DC0DE10BD82BEC1FE22BE32BE42B5914B7
:1007C8006C1CE72BE82BEB2B0314EC0DED2B031023
:1007D800EC0D6B080319F12BF22BF42B0130EB0213
:1007E800DB1FF72BF82BD62BEA01EC1FFC2BFD2B7C
:1007F8000B2C6C087F390319022C032C062CEA01F8
:10080800EA0A0B2C591C092C0A2C0B2C032C6A08FD
:1008180003190F2C102C442C0130D9070030031871
:100828000130DA07003003180130DB070030031805
:100838000130DC075C1C212C222C442C5908E100D7
:100848005A08E2005B08E3005C08E4000130E500B8
:10085800640DE40CE30CE20CE10CE50B2C2C6408B1
:10086800DC006308DB006208DA006108D9006B0A63
:1008780003193F2C402C442C0130E1006108EB07A0
:100888006B0A0319482C492C4E2C6B08031D4D2C60
:100898004E2C5C2C0030DC000030DB000030DA002D
:1008A8000030D9006B08031D5A2C5B2C5C2CE90125
:1008B8006B1C5F2C602C622CDB17662C7F30E100F0
:1008C8006108DB056B08E1000310610CE2006208B7
:1008D800DC00E91F702C712C722CDC1708008312C5
:1008E800031328088039AD002D08B2002808AD0090
:1008F8002D07AE002E08B800A71F832C842C852C4A
:10090800381438080319892C8A2C992C380A031DA5
:100918008E2C8F2C972C0030A8000030A7000030B8
:10092800A6000030A500A717A12C0030A8000030B1
:10093800A7000030A6000030A5002C088039AD00C3
:100948002D08B2062C08AD002D07AE002E08B70002
:10095800AB1FAF2CB02CB12C371437080319B52CAA
:10096800B62CC52C370A031DBA2CBB2CC32C00305F
:10097800AC000030AB000030AA000030A900AB1773
:10098800CD2C0030AC000030AB000030AA000030A5
:10099800A90037080319D12CD22CD72C3808031DED
:1009A800D62CD72CE02C0030A8000030A70000304F
:1009B800A6000030A500D32F2508AD002D08F000B3
:1009C8002B080A168A1159260A128A1171088312ED
:1009D8000313BE007008BD003D08AD00AE01AF01B5
:1009E800B0013008B6002F08B5002E08B4002D0855
:1009F800B3003E08AD00AE01AF01B0013008BC0045
:100A08002F08BB002E08BA002D08B9002608AD0033
:100A18002D08F0002A080A168A1159260A128A1186
:100A2800710883120313BE007008BD003D08AD00B5
:100A3800AE01AF01B0012D08B3072E08031103184A
:100A4800013E0319282DB4072F0803110318013E8E
:100A580003192F2DB507300803110318013E031998
:100A6800362DB6073E08AD00AE01AF01B0012D0826
:100A7800B9072E0803110318013E0319442DBA07BC
:100A88002F0803110318013E03194B2DBB0730082B
:100A980003110318013E0319522DBC072708AD00A6
:100AA8002D08F00029080A168A1159260A128A11F7
:100AB800710883120313BE007008BD003D08AD0025
:100AC800AE01AF01B0012D08B3072E0803110318BA
:100AD800013E0319702DB4072F0803110318013EB6
:100AE8000319772DB507300803110318013E0319C0
:100AF8007E2DB6073E08AD00AE01AF01B0012D084E
:100B0800B9072E0803110318013E03198C2DBA07E3
:100B18002F0803110318013E0319932DBB07300852
:100B280003110318013E03199A2DBC070830AD00C4
:100B38000310B30DB40DB50DB60DAD0B9C2D2608E5
:100B4800AD002D08F00029080A168A1159260A1244
:100B58008A11710883120313BE007008BD003D0896
:100B6800AD003E08AE00AF01B0012D08B3072E0856
:100B780003110318013E0319C22DB4072F080311EE
:100B88000318013E0319C92DB507300803110318CE
:100B9800013E0319D02DB6072508AD002D08F00039
:100BA8002A080A168A1159260A128A11710883120C
:100BB8000313BE007008BD003D08AD003E08AE003E
:100BC800AF01B0012D08B3072E0803110318013E29
:100BD8000319EF2DB4072F0803110318013E031959
:100BE800F62DB507300803110318013E0319FD2D32
:100BF800B6070830AD000310B30DB40DB50DB60D32
:100C0800AD0BFF2D2508AD002D08F00029080A16A8
:100C18008A1159260A128A11710883120313BE0019
:100C28007008BD003D08AD003E08AE00AF01B00140
:100C38002D08B3072E0803110318013E0319252EAA
:100C4800B4072F0803110318013E03192C2EB5070A
:100C5800300803110318013E0319332EB60726087E
:100C6800AD002D08F0002B080A168A1159260A1221
:100C78008A11710883120313BE007008BD003D0875
:100C8800AD003E08AE00AF01B0012D08B9072E082F
:100C980003110318013E0319522EBA072F08031136
:100CA8000318013E0319592EBB0730080311031816
:100CB800013E0319602EBC072708AD002D08F0007F
:100CC8002A080A168A1159260A128A1171088312EB
:100CD8000313BE007008BD003D08AD003E08AE001D
:100CE800AF01B0012D08B9072E0803110318013E02
:100CF80003197F2EBA072F0803110318013E0319A1
:100D0800862EBB07300803110318013E03198D2EE8
:100D1800BC072708AD002D08F0002B080A168A1119
:100D280059260A128A11710883120313BE0070082B
:100D3800BD003D08AD003E08AE00AF01B00108306F
:100D48000310AD0DAE0DAF0DB00DFF3E031DA42E6B
:100D58002D08B9072E0803110318013E0319B52EF3
:100D6800BA072F0803110318013E0319BC2EBB074D
:100D7800300803110318013E0319C32EBC073308BA
:100D8800AD003408AE003508AF003608B0001830A2
:100D98000310B00CAF0CAE0CAD0CFF3E031DCC2EF7
:100DA8002D08B9072E0803110318013E0319DD2E7B
:100DB800BA072F0803110318013E0319E42EBB07D5
:100DC800300803110318013E0319EB2EBC07083045
:100DD800AD000310B30DB40DB50DB60DAD0BED2E72
:100DE80038083707AD00AE01AE0D2D08823EBD00B4
:100DF8002E080318013EFF3EBE001F2F0130AD0034
:100E08000310B90DBA0DBB0DBC0DAD0B042FB61FE9
:100E18000E2F0F2F102F39140130AD000310B30D12
:100E2800B40DB50DB60DAD0B122FFF30BD0703186D
:100E3800BE0AFF30BE07BB1F222F232F022FB70188
:100E4800B61F272F282F442FFF303305AD00FF3062
:100E58003405AE00FF303505AF007F303605B000F1
:100E680030082F042E042D0403193B2F3C2F3F2F4D
:100E7800B701B70A442F391C422F432F442F3C2F68
:100E880037080319482F492F7A2F0130B907003046
:100E980003180130BA07003003180130BB070030CF
:100EA80003180130BC073C1C5A2F5B2F7A2F3908D6
:100EB800AD003A08AE003B08AF003C08B000013076
:100EC800B100300DB00CAF0CAE0CAD0CB10B652FF2
:100ED8003008BC002F08BB002E08BA002D08B90046
:100EE8000130BD070318BE0A0030BE073E08803A2D
:100EF800FF0080307F02031D832FFF303D02031C5B
:100F0800862F872F922F7F3083120313BC008030E7
:100F1800BB000030BA000030B900C72F831203139A
:100F28003E08803AFF0080307F02031D9D2F01306C
:100F38003D020318A02FA12FAD2F003083120313F9
:100F4800BC000030BB000030BA000030B900B2016C
:100F5800C72F831203133D08AD002D08B800FF30DA
:100F6800B905FF30BA057F30BB050030BC05381C19
:100F7800BE2FBF2FC02FBB173808AD0003102D0C94
:100F8800AE002E08BC003208AD002D08BC043C0899
:100F9800A8003B08A7003A08A6003908A5000800E1
:100FA8008317A030FD001530FE00AC30FF009030F4
:100FB80084000A168A11D2250A128A11831603138D
:100FC8000A128A1104200A128A11ED000A128A11E3
:100FD80005200A128A11EE008313D6308400ED3002
:100FE8000A128A1106200A128A1183120313EE01CB
:100FF80083010A128A15F22DFF1B0A2883137F1812
:1010080083170008840A0319FF0A080008308A00B9
:101018000408840A82070034013400340A34003496
:1010280064340034E8340334103427343234303430
:101038003234313400342A3400340034003400347B
:101048000034C434FF347F343F348034EF34FF3409
:10105800BE349034E134A9343E34EC3482347634EE
:10106800BE348234AD342B343E340E343C34C33475
:10107800BD348734D13413343D3441347834D334D7
:10108800BB34543445344D3450343A340034253468
:101098006434253463344334003420342034003439
:1010A8008316031387140800831203130712871289
:1010B8000800780879040319622863289228FD013A
:1010C800FD0A712801300310F80DF90DFF3E031DCC
:1010D80067280130FC007C08FD07F91F7428752873
:1010E800662879087B02031D7B2878087A02031C8E
:1010F8007E287F2885287808FA027908031CFB03D4
:10110800FB0201300310F90CF80CFF3E031D862882
:101118000130FD02031D9128922875287B08F900EB
:101128007A08F8000800831203132308F300220842
:10113800F2002108F1002008F0000030F70000302C
:10114800F6000030F5000030F4000A168A11B227C4
:101158000A128A15031CB128B228C3288312031364
:101168002408840083138001840A80010030A300CE
:101178000030A2000030A1000030A000F228831245
:10118800031323087F39FC00FD010310FC0DFD0D3E
:10119800240884007C0883138000840A7D0880006A
:1011A800220D220D0139FC00FD01240884007C0871
:1011B8008004840A7D088004240884008230800723
:1011C800840F00080318000AFF00FF307F07800023
:1011D8008403230880393F38A300A21308000310B2
:1011E800720D730DF4007408FA007A08031DFD28C7
:1011F800FE2807290030F3000030F2000030F1002B
:101208000030F0006C297008F4007108F5007208CD
:10121800F6007308F7001F300310F70CF60CF50CF6
:10122800F40CFF3E031D10297408F8007808F90033
:10123800F217FF30F005FF30F105FF30F2050030FE
:10124800F3059630FA02FA1F2A292B2945297A082C
:10125800803A973E0318312932293329FE28013074
:101268000310F30CF20CF10CF00CFF3E031D3429B3
:101278000130F4007408FA07031D4329442933296F
:101288005C2920307A02031C4A294B295729FE2859
:101298000130F4000310F00DF10DF20DF30DF40B15
:1012A8004E290130FA027A08031D5B295C294C2972
:1012B80079080319602961296C29F009F109F209F3
:1012C800F309F00A0319F10A0319F20A0319F30AD8
:1012D800080000307005F80000307105F900803012
:1012E8007205FA007F307305FB007B087A047904E5
:1012F8007804031D8029812989290030F3000030F2
:10130800F2000030F1000030F00000307405F80001
:1013180000307505F90080307605FA007F307705D2
:10132800FB007B087A0479047804031D9C299D2915
:10133800A5290030F7000030F6000030F500003035
:10134800F400F31FA829A929CD290030F80000309E
:10135800F9000030FA008030FB007008F8027108CC
:10136800031C710FB829B929F9027208031C720FFE
:10137800BE29BF29FA027308031C730FC429C529A3
:10138800FB027B08F3007A08F2007908F10078087C
:10139800F000F71FD029D129F5290030F8000030D6
:1013A800F9000030FA008030FB007408F802750874
:1013B800031C750FE029E129F9027608031C760F52
:1013C800E629E729FA027708031C770FEC29ED29AB
:1013D800FB027B08F7007A08F6007908F500780820
:1013E800F4008030F3068030F70677087302031D97
:1013F800072A76087202031D072A75087102031D61
:10140800072A7408700203180A2A0B2A0D2A0310E7
:101418000E2A03140800F80078080319142A152A5C
:10142800292AF31F182A192A292A7009FA0071098A
:10143800FB007209FC007309FD00FA0A0319FB0A94
:101448000319FC0A0319FD0A312A7308FD00720802
:10145800FC007108FB007008FA007308720471043C
:101468007004031D382A392A422A0030F30000305C
:10147800F2000030F1000030F000C82A9630F40085
:101488007408F900542A0130F4007408F90701308F
:101498000310FD0CFC0CFB0CFA0CFF3E031D4C2A40
:1014A800FE307D05031D592A5A2A472A762A01301B
:1014B800F4007408F9070130FA0700300318013006
:1014C800FB07003003180130FC0700300318013017
:1014D800FD0701300310FD0CFC0CFB0CFA0CFF3E61
:1014E800031D6E2AFF307D05031D7B2A7C2A5B2A9B
:1014F800882A0130F9020130F4000310FA0DFB0DBF
:10150800FC0DFD0DF40B812AFC1B8B2A8C2A922AD8
:10151800023079020318912A922A7D2A7918952A8D
:10152800962A9E2AFF30FA05FF30FB057F30FC051E
:10153800FF30FD050310F90C7908F400F501F601F8
:10154800F70118300310F40DF50DF60DF70DFF3EF9
:10155800031DA62A7408FA047508FB047608FC041F
:101568007708FD0478080319BA2ABB2AC02AF31F92
:10157800BE2ABF2AC02AFD177D08F3007C08F200A6
:101588007B08F1007A08F000080083160313250889
:10159800A70001300310A70DFF3E031DCE2A03103C
:1015A800270D240784000A128A150A200A128A15B0
:1015B800A8000A128A150A200A128A15A9000A1216
:1015C8008A150A200A128A15AA000A128A150A2000
:1015D8000A128A15AB002B08AF002A08AE002908AA
:1015E800AD002808AC00942BFF30A5070318A60A05
:1015F800FF30A6072508A70001300310A70DFF3EFE
:10160800031D012B0310270D240784000A128A15D5
:101618000A200A128A15A8000A128A150A200A1234
:101628008A15A9000A128A150A200A128A15AA0020
:101638000A128A150A200A128A15AB002B0883128F
:101648000313DC00831603132A0883120313DB0039
:1016580083160313290883120313DA00831603136E
:10166800280883120313D900831603132F08831243
:101678000313A800831603132E0883120313A7006D
:10168800831603132D0883120313A600831603136E
:101698002C0883120313A50083160313230883124F
:1016A8000313AC0083160313220883120313AB0041
:1016B80083160313210883120313AA008316031346
:1016C800200883120313A9000A128A1173240A122C
:1016D8008A15831203132808E0002708DF0026086C
:1016E800DE002508DD000A128A11EB210A128A158C
:1016F800831203135C0883160313AF0083120313CA
:101708005B0883160313AE00831203135A0883166B
:101718000313AD0083120313590883160313AC0097
:1017280025082604031D992B9A2BF82A2F08A300B5
:101738002E08A2002D08A1002C08A0000800831282
:101748000313AD002130A5002508AA008F2C2530F1
:101758002E060319B02BB12BBD2B2E08A5002D0882
:1017680084002508831380000130A5002508AD07F3
:101778008F2CA801D62B2A08840083130008A50003
:101788002508AE000230A5002508AA072E08A500E6
:101798002D0884002508831380000130A500250842
:1017A800AD078F2C0130A007FF30200784000A12F4
:1017B8008A150A200A128A15AE00A500A601260875
:1017C800003A0319E82BCA2B2508003A0319A12C63
:1017D800633A0319BF2B073A0319F62B0D3A03197D
:1017E800F62BCA2B2A08840083130008AB00840A4E
:1017F8000008AC000230A5002508AA07AC1F052C7C
:10180800062C0F2C0330A5002508A804AB09AC0949
:10181800AB0A0319AC0AAE01AE0A2E08A5002507CB
:10182800013E84000A128A150A200A128A15A600A7
:101838000A128A150A200A128A15A70027082C02FC
:10184800031D282C26082B0203182B2C2C2C2D2C9E
:10185800372C0130A5002508AE0705302E06031DDC
:10186800362C372C112C2808033903193C2C3D2C15
:10187800482C2D30A5002D088400250883138000EE
:101888000130A5002508AD072E08A5002508A900E8
:10189800862C0A30F8000030F9002908A500250731
:1018A800013E84000A128A150A200A128A15F000DD
:1018B8000A128A150A200A128A15F1002C08F30068
:1018C8002B08F2000A168A116E270A128A15710867
:1018D800FB007008FA000A128A155D200A128A15A0
:1018E8007808303E83120313A6002608AE002E089F
:1018F800A5002D0884002508831380000130A50069
:101908002508AD07FF30A5002508A907290A031DEA
:101918008E2C8F2C4D2C0130A007FF30200784001F
:101928000A128A150A200A128A15A5002508AE008F
:101938002E08031DA02CA12CAB2B2D08840083138B
:1019480080010800831603133308F3003208F200FD
:101958003108F1003008F0000030F7000030F600E0
:101968000030F5000030F4000A128A156D210A12C1
:101978008A150318C02CC12CD02C213083160313D0
:10198800DB000030DC000030B3000030B200003073
:10199800B1000030B000F12D831603133308F300B3
:1019A8003208F2003108F1003008F0000030F7008A
:1019B8000030F6000030F5000030F4000A168A11F5
:1019C800B2270A128A15031CEA2CEB2CFA2C2230B7
:1019D80083160313DB000030DC000030B300003056
:1019E800B2000030B1000030B000F12DBF308312DA
:1019F8000313DC008030DB000030DA000030D9004F
:101A08004030A8000030A7000030A6000030A50034
:101A1800B430ED006D08A400831603133308831255
:101A28000313A30083160313320883120313A200BF
:101A380083160313310883120313A10083160313BB
:101A4800300883120313A0000A128A1597200A127D
:101A58008A15831203132308AC002208AB0021085F
:101A6800AA002008A9000A128A1173240A128A15EA
:101A7800831203132808E0002708DF002608DE0089
:101A88002508DD000A128A11EB210A128A15831231
:101A980003135C0883160313B300831203135B0854
:101AA80083160313B200831203135A088316031311
:101AB800B10083120313590883160313B000FF30D3
:101AC800B4070318B50AFF30B5073308A300320876
:101AD800A2003108A1003008A000123083120313BD
:101AE800ED006D0883160313A4000830A50000302C
:101AF800A6000A128A15C9220A128A158316031328
:101B08002308B3002208B2002108B1002008B00061
:101B1800330883120313DC0083160313320883127D
:101B28000313DB0083160313310883120313DA004F
:101B380083160313300883120313D9003F30A8001B
:101B48003130A7007230A6001830A50083160313A1
:101B58003408F0003508F1000030F11BFF30F200C6
:101B6800F30001300A128A150F220A128A15730827
:101B780083120313AC007208AB007108AA00700846
:101B8800A9000A128A1173240A128A1583120313F0
:101B98002808E0002708DF002608DE002508DD0009
:101BA8000A128A11EB210A128A15831203135C08A0
:101BB80083160313B300831203135B0883160313FE
:101BC800B200831203135A0883160313B100831259
:101BD8000313590883160313B000080071308316E5
:101BE80003138F0083160317890183160313071045
:101BF8008710071107130A168A1183250A128A15F6
:101C08000A168A1180260A128A150A168A11702560
:101C18000A128A150A168A116C250A128A150A12DE
:101C28008A1554200A128A150A168A11E1250A1201
:101C38008A150A168A118F250A128A150A168A1118
:101C4800FB250A128A1570037104031D2C2E2D2EF4
:101C5800332E0A168A1174250A128A15382E0A1686
:101C68008A117E250A128A150A168A11D6260A12A0
:101C78008A15FF3083160313B6000330B7007008C7
:101C88003602C2007108031C710A3702C300C4017E
:101C9800C31BC4034408C500C13083120313DC000E
:101CA8002030DB000030DA000030D900831603133F
:101CB8004508F3004408F2004308F1004208F00028
:101CC80001300A128A150F220A128A157308831224
:101CD8000313C2007208C1007108C0007008BF0079
:101CE8004630C6002030C5002830C4000030C3008C
:101CF8000A128A110E200A128A1583120313420847
:101D0800E0004108DF004008DE003F08DD000A125D
:101D18008A11EB210A128A15831203135C088316B1
:101D28000313CD00831203135B0883160313CC003F
:101D3800831203135A0883160313CB008312031369
:101D4800590883160313CA00413083120313C200D3
:101D58002030C1000030C0000030BF0083160313DC
:101D68004D0883120313C600831603134C0883120D
:101D78000313C500831603134B0883120313C4000F
:101D8800831603134A0883120313C3000A128A1125
:101D98000E200A128A1583120313420883160313AE
:101DA800B30083120313410883160313B20083128E
:101DB8000313400883160313B100831203133F086B
:101DC80083160313B0000A128A15A6240A128A156C
:101DD800831603133308D1003208D0003108CF002E
:101DE8003008CE00413083120313DC005B30DB0087
:101DF8009830DA00EA30D9008316031351088312A9
:101E08000313E00083160313500883120313DF0043
:101E1800831603134F0883120313DE00831603137C
:101E28004E0883120313DD000A128A11EB210A12ED
:101E38008A15831203135C08C2005B08C1005A08A4
:101E4800C0005908BF004530C6007F30C500A0302B
:101E5800C4000030C3000A128A110E200A128A1523
:101E680083120313420883160313D5008312031346
:101E7800410883160313D400831203134008831602
:101E88000313D300831203133F0883160313D200EE
:101E9800C33083120313DC008830DB008030DA00A3
:101EA8000030D90083160313550883120313E0008A
:101EB80083160313540883120313DF0083160313D6
:101EC800530883120313DE00831603135208831288
:101ED8000313DD000A128A11EB210A128A158312F4
:101EE80003135C0883160313C900831203135B08EA
:101EF80083160313C800831203135A0883160313A7
:101F0800C70083120313590883160313C6003C3015
:101F1800B600360883120313A0008316031349087A
:101F2800F3004808F2004708F1004608F0000A12DA
:101F38008A15F3200A128A15710883120313A20066
:101F48007008A100DF30A3000030A400B8300A12E6
:101F58008A15A3230A128A150A168A119C250A12C1
:101F68008A15F501363083160313B6003608F600D5
:101F780002300A168A11AA260A128A15B830F30006
:101F88000030F4000A168A1133260A128A154230E4
:101F9800F3008030F4000A168A1133260A128A15D3
:101FA8000A168A1117260A128A1570037104031D6E
:101FB800DE2FDF2FE52F0A168A1179250A128A15D6
:101FC800EA2F0A128A1558200A128A150A168A1147
:101FD800BC250A128A1570037104031DF42FF52F0E
:101FE800F92F831203130717222E831203130713E3
:081FF800222E0A128A110028B2
:102AD8008316031307150800831603130714080049
:102AE80083120313071687160800831203130716A9
:102AF8008715080083120313071287110800F030A6
:102B0800F0007008831603138605F030F000700893
:102B18008604811308008312031307128711871292
:102B28000713831603138711871207130712080068
:102B380001300A168A1102270A168A110830F40091
:102B4800C930F300F30BA62DF40BA62DAB2D08000E
:102B58003134323433344134343435343634423415
:102B680037343834393443342A3430342334443411
:102B780083120313071DC12DC22DC72D0130F2008A
:102B88000030F300C92DF201F3017308F100720857
:102B9800F00008007E088A007F0882000A168A1161
:102BA800CE250A168A118000840A04087D060319B6
:102BB8000034FF0A0319FE0AD22D013083160317C9
:102BC80088008312031385018316031305148510E7
:102BD800051185119F171F129F12C330831203130B
:102BE8009F051F083F3940389F001F1408008312B3
:102BF8000313071C002E012E082E01308316031321
:102C0800E7000030E800102E07180B2E0C2E102EAF
:102C180083160313E701E801831603136808F1001C
:102C28006708F000080083120313871C1C2E1D2E52
:102C3800242E013083160313E5000030E6002C2E05
:102C48008718272E282E2C2E83160313E501E6015C
:102C5800831603136608F1006508F0000800482E83
:102C68007408FF00730884000A128A1500200A16E7
:102C78008A110A168A1138270A168A110130F307B1
:102C88000318F40A0030F407740883120313FF00D2
:102C9800730884000A128A1500200A168A11003A5D
:102CA800031D572E582E342E0800F800F401F501A4
:102CB8007008F200F3017208F6007308F700781C38
:102CC800662E672E6D2E7608F4070318F50A770826
:102CD800F50701300310F60DF70DFF3E031D6E2EAC
:102CE8000310F80C7808031D7A2E7B2E632E7508C6
:102CF800F1007408F00008008316031388012730D8
:102D0800F400F530F300F30B872EF40B872E023016
:102D18000A168A1102270A168A1128300A168A11F9
:102D280002270A168A1101300A168A1102270A1682
:102D38008A110C300A168A1102270A168A110630DF
:102D48000A168A1102270A168A110800F8000230AA
:102D580078020318B02EB12EBE2E75080F398038B0
:102D6800F7007708F90079080A168A1102270A1667
:102D78008A11CA2E75080F39C038F7007708F9008C
:102D880079080A168A1102270A168A117608F300AA
:102D98000030031D8030F4000A168A1133260A1603
:102DA8008A110800831203139F149F18DC2EDD2E4E
:102DB800D92E1E08F200F301720883160313DF00F0
:102DC8007308E0006008F3005F08F2007208F3007F
:102DD800F2011E087207F40000300318013073076F
:102DE800F5007408DF007508E0006008DE005F0881
:102DF800DD005E08F1005D08F0000800F200F03028
:102E08007205F0008312031308080F397004880054
:102E18000810881400008312031388100330F1008F
:102E28009730F000F00B162FF10B162F1B2F72089E
:102E3800F00004300310F00DFF3E031D1E2F831217
:102E4800031308080F3970048800881400008312DF
:102E5800031388100830F100C930F000F00B322F4E
:102E6800F10B322F372F0800F200F0307205F00016
:102E78008312031308080F39700488000814881493
:102E880000008312031388100330F1009730F0001C
:102E9800F00B4C2FF10B4C2F512F7208F00004301F
:102EA8000310F00DFF3E031D542F8312031308086F
:102EB8000F397004880088140000831203138810E7
:102EC8000830F100C930F000F00B682FF10B682FC3
:102ED8006D2F0800F501F601700871040319752FAC
:102EE800762FAD2FF701F70A842F01300310F00D6C
:102EF800F10DFF3E031D7A2F0130F4007408F70727
:102F0800F11F872F882F792F01300310F50DF60D4B
:102F1800FF3E031D892F71087302031D952F70084A
:102F28007202031C982F992FA02F7008F2027108C3
:102F3800031CF303F302751401300310F10CF00CB9
:102F4800FF3E031DA12F0130F702031DAC2FAD2F4B
:102F5800882F7608F1007508F00008000030700529
:102F6800F80000307105F90080307205FA007F30F2
:102F78007305FB007B087A0479047804031DC52FC8
:102F8800C62FCE2F0030F3000030F2000030F100E1
:102F98000030F00000307405F80000307505F900C5
:102FA80080307605FA007F307705FB007B087A04CD
:102FB80079047804031DE12FE22FEA2F0030F7008F
:102FC8000030F6000030F5000030F4007708730692
:102FD800031DF82F76087206031DF82F7508710671
:102FE800031DF82F740870060319FB2FFC2FFE2F02
:082FF8000310FF2F0314080071
:08400000FF3FFF3FFF3FFF3FC0
:04400E00D520FF3F7B
:00000001FF
