:060000000A128A11C32F51
:1000080030343034803083160313A3062708831254
:100018000313DC0083160313260883120313DB0083
:1000280083160313250883120313DA0083160313B8
:10003800240883120313D900831603132308831299
:100048000313E00083160313220883120313DF004F
:1000580083160313210883120313DE008316031388
:10006800200883120313DD000A128A1578250A1264
:100078008A11831203135C0883160313A3008312E7
:1000880003135B0883160313A200831203135A0891
:1000980083160313A100831203135908831603134D
:1000A800A00008008312031328088039AD002D082A
:1000B800B2002808AD002D07AE002E08B800A71F13
:1000C8006628672868283814380803196C286D28AA
:1000D8007C28380A031D712872287A280030A80065
:1000E8000030A7000030A6000030A500A71784281C
:1000F8000030A8000030A7000030A6000030A5009E
:100108002C088039AD002D08B2062C08AD002D074B
:10011800AE002E08B700AB1F9228932894283714F6
:100128003708031998289928A828370A031D9D28F5
:100138009E28A6280030AC000030AB000030AA0092
:100148000030A900AB17B0280030AC000030AB007D
:100158000030AA000030A90037080319B428B528D0
:10016800BA283808031DB928BA28C3280030A800BF
:100178000030A7000030A6000030A500B62B2508E7
:10018800AD002D08F0002B080A168A111A220A124F
:100198008A11710883120313BE007008BD003D0860
:1001A800AD00AE01AF01B0013008B6002F08B500B0
:1001B8002E08B4002D08B3003E08AD00AE01AF0113
:1001C800B0013008BC002F08BB002E08BA002D086B
:1001D800B9002608AD002D08F0002A080A168A1171
:1001E8001A220A128A11710883120313BE007008BA
:1001F800BD003D08AD00AE01AF01B0012D08B30749
:100208002E0803110318013E03190B29B4072F0800
:1002180003110318013E03191229B5073008031109
:100228000318013E03191929B6073E08AD00AE01AF
:10023800AF01B0012D08B9072E0803110318013EBC
:1002480003192729BA072F0803110318013E0319B8
:100258002E29BB07300803110318013E031935295D
:10026800BC072708AD002D08F00029080A168A11D6
:100278001A220A128A11710883120313BE00700829
:10028800BD003D08AD00AE01AF01B0012D08B307B8
:100298002E0803110318013E03195329B4072F0828
:1002A80003110318013E03195A29B5073008031131
:1002B8000318013E03196129B6073E08AD00AE01D7
:1002C800AF01B0012D08B9072E0803110318013E2C
:1002D80003196F29BA072F0803110318013E0319E0
:1002E8007629BB07300803110318013E03197D293D
:1002F800BC070830AD000310B30DB40DB50DB60D35
:10030800AD0B7F292608AD002D08F00029080A1634
:100318008A111A220A128A11710883120313BE0065
:100328007008BD003D08AD003E08AE00AF01B00149
:100338002D08B3072E0803110318013E0319A52938
:10034800B4072F0803110318013E0319AC29B50798
:10035800300803110318013E0319B329B60725080D
:10036800AD002D08F0002A080A168A111A220A126E
:100378008A11710883120313BE007008BD003D087E
:10038800AD003E08AE00AF01B0012D08B3072E083E
:1003980003110318013E0319D229B4072F080311CA
:1003A8000318013E0319D929B507300803110318AA
:1003B800013E0319E029B6070830AD000310B30D5C
:1003C800B40DB50DB60DAD0BE2292508AD002D080D
:1003D800F00029080A168A111A220A128A117108CD
:1003E80083120313BE007008BD003D08AD003E082F
:1003F800AE00AF01B0012D08B3072E080311031892
:10040800013E0319082AB4072F0803110318013EF7
:1004180003190F2AB507300803110318013E031901
:10042800162AB6072608AD002D08F0002B080A1674
:100438008A111A220A128A11710883120313BE0044
:100448007008BD003D08AD003E08AE00AF01B00128
:100458002D08B9072E0803110318013E0319352A80
:10046800BA072F0803110318013E03193C2ABB07DA
:10047800300803110318013E0319432ABC07270853
:10048800AD002D08F0002A080A168A111A220A124D
:100498008A11710883120313BE007008BD003D085D
:1004A800AD003E08AE00AF01B0012D08B9072E0817
:1004B80003110318013E0319622ABA072F08031112
:1004C8000318013E0319692ABB07300803110318F2
:1004D800013E0319702ABC072708AD002D08F0005B
:1004E8002B080A168A111A220A128A117108831215
:1004F8000313BE007008BD003D08AD003E08AE0005
:10050800AF01B00108300310AD0DAE0DAF0DB00D49
:10051800FF3E031D872A2D08B9072E08031103186B
:10052800013E0319982ABA072F0803110318013E40
:1005380003199F2ABB07300803110318013E03194A
:10054800A62ABC073308AD003408AE003508AF0052
:100558003608B00018300310B00CAF0CAE0CAD0C60
:10056800FF3E031DAF2A2D08B9072E0803110318F3
:10057800013E0319C02ABA072F0803110318013EC8
:100588000319C72ABB07300803110318013E0319D2
:10059800CE2ABC070830AD000310B30DB40DB50D5D
:1005A800B60DAD0BD02A38083707AD00AE01AE0D39
:1005B8002D08823EBD002E080318013EFF3EBE00F6
:1005C800022B0130AD000310B90DBA0DBB0DBC0DE7
:1005D800AD0BE72AB61FF12AF22AF32A39140130A3
:1005E800AD000310B30DB40DB50DB60DAD0BF52A66
:1005F800FF30BD070318BE0AFF30BE07BB1F052B1F
:10060800062BE52AB701B61F0A2B0B2B272BFF3029
:100618003305AD00FF303405AE00FF303505AF00BF
:100628007F303605B00030082F042E042D0403193E
:100638001E2B1F2B222BB701B70A272B391C252B62
:10064800262B272B1F2B370803192B2B2C2B5D2B25
:100658000130B907003003180130BA070030031819
:100668000130BB07003003180130BC073C1C3D2B90
:100678003E2B5D2B3908AD003A08AE003B08AF00B1
:100688003C08B0000130B100300DB00CAF0CAE0C1E
:10069800AD0CB10B482B3008BC002F08BB002E084E
:1006A800BA002D08B9000130BD070318BE0A003092
:1006B800BE073E08803AFF0080307F02031D662B8C
:1006C800FF303D02031C692B6A2B752B7F30831288
:1006D8000313BC008030BB000030BA000030B90002
:1006E800AA2B831203133E08803AFF0080307F0252
:1006F800031D802B01303D020318832B842B902B84
:10070800003083120313BC000030BB000030BA0075
:100718000030B900B201AA2B831203133D08AD00C3
:100728002D08B800FF30B905FF30BA057F30BB058A
:100738000030BC05381CA12BA22BA32BBB173808F3
:10074800AD0003102D0CAE002E08BC003208AD0021
:100758002D08BC043C08A8003B08A7003A08A600DE
:100768003908A50008007130831603138F0083161B
:100778000317890183160313870185010130831646
:1007880003178800831203138501831603130514C6
:100798008510051185119F171F129F12C3308312F0
:1007A80003139F051F083F3940389F001F14831605
:1007B80003130714871107128312031307108711F5
:1007C800071283160313071507138312031307135E
:1007D80007118316031387148712831203138710D4
:1007E80087120A168A11A5210A128A110A168A1175
:1007F80041220A128A1183120313071C042C052CA8
:10080800082C071687150B2C0712871187128316D9
:10081800031362086304031D122C132C1C2C83126F
:100828000313871C182C192C232C07168716232C26
:1008380083120313071D212C222C232C07179F1426
:100848009F18272C282C242C1E0883160313C0005D
:10085800C1014008E4004108E5006508C1006408DA
:10086800C0004008C100C0011E084007C200003097
:10087800031801304107C3004208E4004308E500BB
:100888006408F0006508F1000030F11BFF30F20049
:10089800F30001300A168A116A250A128A117308B0
:1008A80083160317B3007208B2007108B10070080C
:1008B800B000443083160313A7007F30A600C03071
:1008C800A5000030A400831603173308831603130A
:1008D800A30083160317320883160313A200831696
:1008E8000317310883160313A10083160317300872
:1008F80083160313A0000A128A1106200A128A110D
:10090800831603132308AB002208AA002108A900B4
:100918002008A8000A168A1136240A128A1183169A
:1009280003132B08D1002A08D0002908CF00280873
:10093800CE00C13083120313DC002030DB0000300E
:10094800DA000030D900831603135108F300500869
:10095800F2004F08F1004E08F00001300A168A1123
:100968006A250A128A11730883120313C2007208D7
:10097800C1007108C0007008BF004630C6002030B2
:10098800C5002830C4000030C3000A128A159B2312
:100998000A128A11831203134208E0004108DF009B
:1009A8004008DE003F08DD000A128A1578250A1281
:1009B8008A11831203135C0883160313D900831268
:1009C80003135B0883160313D800831203135A0812
:1009D80083160313D70083120313590883160313CE
:1009E800D600413083120313C2002030C10000300A
:1009F800C0000030BF008316031359088312031385
:100A0800C60083160313580883120313C500831600
:100A18000313570883120313C400831603135608DD
:100A280083120313C3000A128A159B230A128A1120
:100A380083120313420883160313B30083120313AC
:100A4800410883160313B200831203134008831668
:100A58000313B100831203133F0883160313B00076
:100A68000A128A154B220A128A11831603133308B5
:100A7800DD003208DC003108DB003008DA004130E4
:100A880083120313DC005B30DB009830DA00EA30B5
:100A9800D900831603135D0883120313E00083163D
:100AA80003135C0883120313DF00831603135B0828
:100AB80083120313DE00831603135A0883120313E9
:100AC800DD000A128A1578250A128A118312031387
:100AD8005C08C2005B08C1005A08C0005908BF0082
:100AE8004530C6007F30C500A030C4000030C300C8
:100AF8000A128A159B230A128A11831203134208C9
:100B080083160313E10083120313410883160313AA
:100B1800E00083120313400883160313DF008312D7
:100B280003133F0883160313DE00C3308312031335
:100B3800DC008830DB008030DA000030D900831612
:100B48000313610883120313E0008316031360087C
:100B580083120313DF00831603135F088312031342
:100B6800DE00831603135E0883120313DD000A12E6
:100B78008A1578250A128A11831203135C088316D2
:100B88000313D500831203135B0883160313D400E1
:100B9800831203135A0883160313D3008312031313
:100BA800590883160313D200BA30C0004008B100B8
:100BB8005508AB005408AA005308A9005208A80019
:100BC8000A168A1136240A128A1183160313290871
:100BD800B3002808B200DF30B4000030B500C430DC
:100BE8000A128A1548210A128A11F501AD308316B6
:100BF8000313C0004008F60001300A168A116B2260
:100C08000A128A11C430F3000030F4000A168A115F
:100C1800F4210A128A11C030F3008030F4000A1659
:100C28008A11F4210A128A110B3083160313C200A9
:100C38002630C1005D30C000C00B202EC10B202E15
:100C4800C20B202E8316031362086304031D2D2E86
:100C58002E2E752E6A08031D322E332E442EF501D2
:100C68008F30C0004008F60002300A168A116B2245
:100C78000A128A11C0300A168A1197220A128A119A
:100C88000A168A11FE260A128A1183160313C00057
:100C98004008EE006E080319522E532E6E2E0A16C7
:100CA8008A11B1210A128A11831603136E080A16D3
:100CB8008A11CD220A128A11831603136E08C00006
:100CC8006A08B63E84004008831780000130C000DF
:100CD8004008EA0705306A02031C732E742E442E5E
:100CE800B52E6908031D792E7A2E922E0A168A11BE
:100CF800B1210A128A11F5017F3083160313C0004F
:100D08004008F60002300A168A116B220A128A116C
:100D1800C0300A168A1197220A128A110A128A15F5
:100D280046200A128A1183160313C0004008ED00FA
:100D38006D080319A02EA12EB52E6D080A168A116A
:100D4800CD220A128A11831603136D08C0006908A0
:100D5800EB3E84004008831380000130C000400847
:100D6800E90705306A02031CBA2EBB2E522FB63093
:100D7800F0000130F1002F30C0004008F2000430CC
:100D8800F3000030F4000A168A118B230A128A1124
:100D980070087104031DD12ED22EFD2E0A168A1159
:100DA800B1210A128A11831203130712F5019E302A
:100DB80083160313C0004008F60000300A168A1193
:100DC8006B220A128A11153083160313C2004B30A6
:100DD800C100BD30C000C00BEF2EC10BEF2EC20BFF
:100DE800EF2EF62E013083160313E2000030E300E5
:100DF800B12F03308316031366066704031D052FFE
:100E0800062F2A2F0A168A11B1210A128A11F50112
:100E1800363083160313C0004008F60000300A1667
:100E28008A116B220A128A11333083160313C20007
:100E3800BB30C100DF30C000C00B202FC10B202FFA
:100E4800C20B202F83160313EA01B12F0A168A1149
:100E5800B1210A128A11013083160313E607031819
:100E6800E70A0030E707F5015D30C0004008F600EA
:100E780000300A168A116B220A128A11033083166F
:100E88000313C2000830C1007630C000C00B4A2FDF
:100E9800C10B4A2FC20B4A2F0000262F02306902CD
:100EA800031C572F582FB12FEB30F0000030F10002
:100EB8003430C0004008F2000130F3000030F40084
:100EC8000A168A118B230A128A1170087104031DED
:100ED8006E2F6F2F8F2F0A168A11B1210A128A11CD
:100EE800F5019E3083160313C0004008F600003059
:100EF8000A168A116B220A128A11F5014B308316E1
:100F08000313C0004008F60002300A168A116B224B
:100F18000A128A11AE2F0A168A11B1210A128A11F1
:100F2800F5015D3083160313C0004008F600003059
:100F38000A168A116B220A128A11F5016E3083167D
:100F48000313C0004008F60002300A168A116B220B
:100F58000A128A1183160313E9010B30831603134F
:100F6800C2002630C1005D30C000C00BB92FC10BD4
:100F7800B92FC20BB92FFF2B0A128A110028831729
:100F8800B030FD001130FE00D430FF0090308400F6
:100F98000A168A11C5210A128A11831603130A1226
:100FA8008A1104200A128A11ED000A128A110520FA
:100FB8000A128A11EE0083160317B001B101B201BB
:100FC800B301B401B501B601B701B801B901BA015D
:100FD80083160313E201E301E401E501E601E701F9
:100FE800E801E901EA01EB01EC0183120313EF01C7
:080FF80083010A128A11B72BD4
:10100400F501F60170087104031909280A2841281A
:10101400F701F70A182801300310F00DF10DFF3E17
:10102400031D0E280130F4007408F707F11F1B2874
:101034001C280D2801300310F50DF60DFF3E031D8D
:101044001D2871087302031D292870087202031CED
:101054002C282D2834287008F2027108031CF3038D
:10106400F302751401300310F10CF00CFF3E031D64
:1010740035280130F702031D402841281C28760832
:10108400F1007508F0000800203084009030F00072
:101094000408F1001030F20070088400831700087F
:1010A400F300F00A71088400831373088000F10AC6
:1010B400F20B4E2883120313B001B101B201831263
:1010C400031331083204031D682869289628FE306A
:1010D40086004230F000F00B6D28000075282008CF
:1010E400F0007008B00083120313061E7A287B28D0
:1010F400712880282108F0007008B000861E83281B
:1011040084287C2889282208F0007008B000061F73
:101114008C288D28852892282308F0007008B000B8
:10112400861F952896288E2831033204031D9B2898
:101134009C28C928FD3086004230F000F00BA0281E
:101144000000A8282408F0007008B00083120313DC
:10115400061EAD28AE28A428B3282508F000700880
:10116400B000861EB628B728AF28BC282608F00091
:101174007008B000061FBF28C028B828C528270853
:10118400F0007008B000861FC828C928C1280230A2
:1011940031063204031DCF28D028FD28FB308600F9
:1011A4004230F000F00BD4280000DC282808F000BE
:1011B4007008B00083120313061EE128E228D82821
:1011C400E7282908F0007008B000861EEA28EB28FA
:1011D400E328F0282A08F0007008B000061FF3285E
:1011E400F428EC28F9282B08F0007008B000861FBA
:1011F400FC28FD28F528033031063204031D032999
:1012040004293129F73086004230F000F00B082918
:10121400000010292C08F0007008B000831203139A
:10122400061E152916290C291B292D08F000700803
:10123400B000861E1E291F29172924292E08F00014
:101244007008B000061F2729282920292D292F08D6
:10125400F0007008B000861F302931292929013097
:10126400B1070318B20A0030B2073208803AFF000F
:1012740080307F02031D402904303102031C4329BE
:1012840044296128831203133008080083160313CA
:10129400BE00B230B6003608BB00342A25303F0603
:1012A40003195529562962293F08B6003E088400CF
:1012B4003608831380000130B6003608BE07342A8E
:1012C400B9017B293B08840083130008B600360863
:1012D400BF000230B6003608BB073F08B6003E0820
:1012E40084003608831380000130B6003608BE0738
:1012F400342A0130B107FF30310784000A168A11FD
:101304000A200A128A15BF00B600B7013708003A4E
:1013140003198D296F293608003A0319462A633ABE
:1013240003196429073A03199B290D3A03199B29C8
:101334006F293B08840083130008BC00840A00085A
:10134400BD000230B6003608BB07BD1FAA29AB2971
:10135400B4290330B6003608B904BC09BD09BC0A77
:101364000319BD0ABF01BF0A3F08B6003607013E94
:1013740084000A168A110A200A128A15B7000A166E
:101384008A110A200A128A15B80038083D02031D82
:10139400CD2937083C020318D029D129D229DC29C8
:1013A4000130B6003608BF0705303F06031DDB29B0
:1013B400DC29B629390803390319E129E229ED2981
:1013C4002D30B6003E0884003608831380000130B7
:1013D400B6003608BE073F08B6003608BA002B2A06
:1013E4000A30F8000030F9003A08B6003607013E2A
:1013F40084000A168A110A200A128A15F0000A16B5
:101404008A110A200A128A15F1003D08F3003C08EB
:10141400F2000A128A1502200A128A157108FB00CA
:101424007008FA000A168A1103230A128A1578082A
:10143400303E83160313B7003708BF003F08B600D9
:101444003E0884003608831380000130B600360855
:10145400BE07FF30B6003608BA073A0A031D332A1E
:10146400342AF2290130B107FF30310784000A160B
:101474008A110A200A128A15B6003608BF003F08EE
:10148400031D452A462A50293E08840083138001FF
:101494000800831603133308F3003208F2003108FE
:1014A400F1003008F0000030F7000030F6000030A2
:1014B400F5000030F4000A168A11C8240A128A15AD
:1014C4000318652A662A772A213083160317B40085
:1014D4000030B500003083160313B3000030B200AF
:1014E4000030B1000030B0009A2B83160313330888
:1014F400F3003208F2003108F1003008F000003047
:10150400F7000030F6000030F5000030F4000A1651
:101514008A113D230A128A15031C912A922AA32AAE
:10152400223083160317B4000030B5000030831650
:101534000313B3000030B2000030B1000030B0003B
:101544009A2BBF3083120313DC008030DB000030A1
:10155400DA000030D9004030A8000030A700003085
:10156400A6000030A500B430ED006D08A400831679
:101574000313330883120313A300831603133208DF
:1015840083120313A2008316031331088312031377
:10159400A10083160313300883120313A0000A1654
:1015A4008A11DA230A128A15831203132308AC0062
:1015B4002208AB002108AA002008A9000A128A11F7
:1015C40056200A128A15831203132808E0002708FC
:1015D400DF002608DE002508DD000A128A157825BA
:1015E4000A128A15831203135C0883160313B300CB
:1015F400831203135B0883160313B20083120313CD
:101604005A0883160313B10083120313590883166F
:101614000313B000FF30B4070318B50AFF30B50751
:101624003308A3003208A2003108A1003008A0004A
:101634000B3083120313ED006D0883160313A4000B
:101644000830A5000030A6000A168A1124260A12C2
:101654008A15831603132308B3002208B200210855
:10166400B1002008B000330883120313DC00831692
:101674000313320883120313DB00831603133108A8
:1016840083120313DA00831603133008831203133F
:10169400D9003F30A8003130A7007230A6001830BE
:1016A400A500831603133408F0003508F100003058
:1016B400F11BFF30F200F30001300A168A116A258B
:1016C4000A128A15730883120313AC007208AB0064
:1016D4007108AA007008A9000A128A1156200A1279
:1016E4008A15831203132808E0002708DF00260860
:1016F400DE002508DD000A128A1578250A128A15EB
:10170400831203135C0883160313B30083120313B9
:101714005B0883160313B200831203135A0883165B
:101724000313B10083120313590883160313B00083
:1017340008008312031346088039C7004708D00005
:101744004608C7004707C8004808D700C51FAB2B89
:10175400AC2BAD2B571457080319B12BB22BC22B4A
:10176400570A031DB62BB72BBF2B0030C600003021
:10177400C5000030C4000030C300C517C601CA2B21
:101784000030C6000030C5000030C4000030C30083
:1017940042088039C7004708D0064208C7004707F7
:1017A400C8004808D800C11FD82BD92BDA2B5814ED
:1017B40058080319DE2BDF2BEF2B580A031DE32BEC
:1017C400E42BEC2B0030C2000030C1000030C0001C
:1017D4000030BF00C117C201F72B0030C200003037
:1017E400C1000030C0000030BF0042084104400482
:1017F4003F04031DFE2BFF2B182C0030C6000030C5
:10180400C5000030C4000030C3008030C5047F3000
:10181400C6045008C7004708C6044608C200450865
:10182400C1004408C0004308BF00772D5708031DBA
:101834001C2C1D2C262C0030C2000030C1000030AE
:10184400C0000030BF00772D5708C700C801480802
:10185400CA0058084702C900031CCA0349087F3E4E
:10186400D1004A080318013E003ED2004608CF00CA
:101874004508CE004408CD004308CC000030C60023
:101884000030C5000030C4000030C3000030D60072
:101894000030D5000030D4000030D300D8019C2C97
:1018A40058080319562C572C772C0130C700031005
:1018B400CC0DCD0DCE0DCF0DC70B592C0130C7006B
:1018C4000310C30DC40DC50DC60DC70B622CD61F66
:1018D4006C2C6D2C6E2C43140130C7000310D30DF7
:1018E400D40DD50DD60DC70B702C42084F02031D25
:1018F400852C41084E02031D852C40084D02031D12
:10190400852C3F084C02031C882C892C982C5617D4
:101914003F08CC024008031C400FCD024108031CC1
:10192400410FCE024208031C420FCF020130C70010
:101934004708D8071A305802031CA12CA22C522C99
:101944004F084E044D044C040319A92CAA2CC92C8D
:101954005314C92C0130C7000310C30DC40DC50DA9
:10196400C60DC70BAE2CD61FB82CB92CBA2C4314F9
:101974000130C7000310D30DD40DD50DD60DC70B00
:10198400BC2CFF30D1070318D20AFF30D207C51F81
:10199400CC2CCD2CAC2CD801D61FD12CD22CEE2C97
:1019A400FF305305C700FF305405C800FF3055050C
:1019B400C9007F305605CA004A0849044804470450
:1019C4000319E52CE62CE92CD801D80AEE2C431C8B
:1019D400EC2CED2CEE2CE62C58080319F22CF32CED
:1019E400242D0130C307003003180130C407003030
:1019F40003180130C507003003180130C607461C20
:101A0400042D052D242D4308C7004408C8004508AB
:101A1400C9004608CA000130CB004A0DCA0CC90CE3
:101A2400C80CC70CCB0B0F2D4A08C6004908C500CB
:101A34004808C4004708C3000130D1070318D20A7C
:101A44000030D2075208803AFF0080307F02031D25
:101A54002D2DFF305102031C302D312D3F2DFF3031
:101A640083120313D1000030D2000030C6000030CE
:101A7400C5000030C4000030C300831203135208B1
:101A8400803AFF0080307F02031D4A2D013051024D
:101A940003184D2D4E2D5B2D83120313D101D2015A
:101AA4000030C6000030C5000030C4000030C30060
:101AB400D001831203135108C7004708D700571CED
:101AC400642D652D672DC5176B2D7F30C700470822
:101AD400C5055708C7000310470CC8004808C600CE
:101AE4005008C7004708C6040F2C080083120313CC
:101AF4005C088039E1006108E9005C08E1006107E5
:101B0400E2006208EB00DB1F882D892D8A2D6B14FF
:101B14006B0803198E2D8F2D9F2D6B0A031D932D9A
:101B2400942D9C2D0030DC000030DB000030DA0006
:101B34000030D900DB17DC01A72D0030DC000030B9
:101B4400DB000030DA000030D90060088039E100A1
:101B54006108EA006A0869060319B12DB22DB32D94
:101B640069176008E1006107E2006208EA00DF1F0C
:101B7400BC2DBD2DBE2D6A146A080319C22DC32DB8
:101B8400D32D6A0A031DC72DC82DD02D0030E000C7
:101B94000030DF000030DE000030DD00DF17E00140
:101BA400DB2D0030E0000030DF000030DE000030CC
:101BB400DD006B086A020318E02DE12D252E691F54
:101BC400E42DE52DE92D8030E1006108E9066B087C
:101BD400E1006108EC006A08E1006108EB006C08B0
:101BE400E1006108EA005908E1006108EC005D08C1
:101BF400E1006108D9006C08E1006108DD005A08C1
:101C0400E1006108EC005E08E1006108DA006C089C
:101C1400E1006108DE005B08E1006108EC005F0898
:101C2400E1006108DB006C08E1006108DF005C088A
:101C3400E1006108EC006008E1006108DC006C0868
:101C4400E1006108E000EC016A08E100E2016208D9
:101C5400E4006B086102E300031CE4036408803AB7
:101C6400FF0080307F02031D392E1A306302031CEB
:101C74003C2E3D2E7A2E831203135C085B045A0417
:101C84005904031D462E482E0130492E0030E10030
:101C94006108EC000030DC000030DB000030DA00CA
:101CA4000030D9006A08E1006108EB00822E6C1C48
:101CB4005C2E5D2E662E6C08E1000310610C013869
:101CC400E2006208EC00682E0310EC0C591C6B2E29
:101CD4006C2E6D2EEC170130E1005C0DDC0CDB0C7E
:101CE400DA0CD90CE10B6F2E0130E1006108EB072F
:101CF400831203136A086B02031C812E822E592E51
:101D0400691B852E862ED12E6B08031D8A2E8B2EE1
:101D1400942E0030DC000030DB000030DA000030AC
:101D2400D900FF2F5D08D9075E0803110318013E8F
:101D340003199D2EDA075F0803110318013E0319E6
:101D4400A42EDB07600803110318013E0319AB2E10
:101D5400DC075C1CAE2EAF2E852F6C1CB22EB32E6E
:101D6400BC2E6C08E1000310610C0138E20062082B
:101D7400EC00BE2E0310EC0C591CC12EC22EC32E37
:101D8400EC170130E1005C0DDC0CDB0CDA0CD90C37
:101D9400E10BC52E0130E1006108EB07852F5C08DB
:101DA400803AFF006008803A7F02031DE32E5F083B
:101DB4005B02031DE32E5E085A02031DE32E5D0839
:101DC40059020318E62EE72E3F2FFF30E100FF30C3
:101DD400E200FF30E300FF30E4005D08E5005E0848
:101DE400E6005F08E7006008E8005908E5025A08C1
:101DF400031C5A0FFE2EFF2EE6025B08031C5B0F2A
:101E0400042F052FE7025C08031C5C0F0A2F0B2F1D
:101E1400E8026508E10766080318660F122F132FFE
:101E2400E20767080318670F182F192FE3076808DC
:101E34000318680AE4076408DC006308DB0062082E
:101E4400DA006108D9008030E1006108E906EC0994
:101E5400EC0A6C08031D2F2F302F4D2F0130D907AA
:101E6400003003180130DA07003003180130DB07B3
:101E7400003003180130DC074D2F5D08D9025E08DD
:101E8400031C5E0FDA025F08031C5F0FDB026008AD
:101E9400031C600FDC025C085B045A045904031D34
:101EA400542F552F812F6C08031D592F5A2F812F22
:101EB4000030DC000030DB000030DA000030D900F4
:101EC400FF2F0130E1000310D90DDA0DDB0DDC0D1D
:101ED400E10B652FEC1F6F2F702F712F59146C1CA1
:101EE400742F752F782F0314EC0D7A2F0310EC0D3B
:101EF4006B0803197E2F7F2F812F0130EB02DB1F2C
:101F0400842F852F632FEA01EC1F892F8A2F982FA6
:101F14006C087F3903198F2F902F932FEA01EA0A57
:101F2400982F591C962F972F982F902F6A080319D2
:101F34009C2F9D2FD12F0130D90700300318013079
:101F4400DA07003003180130DB07003003180130D2
:101F5400DC075C1CAE2FAF2FD12F5908E1005A08C3
:101F6400E2005B08E3005C08E4000130E500640D76
:101F7400E40CE30CE20CE10CE50BB92F6408DC0083
:101F84006308DB006208DA006108D9006B0A0319F0
:101F9400CC2FCD2FD12F0130E1006108EB076B0A64
:101FA4000319D52FD62FDB2F6B08031DDA2FDB2F58
:101FB400E92F0030DC000030DB000030DA000030B4
:101FC400D9006B08031DE72FE82FE92FE9016B1CEB
:101FD400EC2FED2FEF2FDB17F32F7F30E10061089B
:101FE400DB056B08E1000310610CE2006208DC0011
:101FF400E91FFD2FFE2FFF2FDC170800FF1B0A2807
:1020040083137F1883170008840A0319FF0A080042
:1020140010308A000408840A820700340134003432
:102024000A34003464340034E8340334103427347C
:102034000034003400340034C434FF347F343F347B
:102044008034EF34FF34BE349034E134A9343E3468
:10205400EC3482347634BE348234AD342B343E34A2
:102064000E343C34C334BD348734D13413343D345A
:1020740041347834D334BB343234303432343134B0
:1020840000342A34003449346E346734723465348D
:1020940073346F3420344E346F3420345034653408
:1020A40072346D3469347434693464346F34003494
:1020B40046347534653472346134203464346534A0
:1020C4006C342034733469347334743465346D344B
:1020D4006134003443346C346134763465342034F0
:1020E40069346E3463346F347234723465346334F7
:1020F40074346134003449346E3467347234653472
:102104007334653420346334613472346134633439
:102114007434653472340034503472346534733436
:1021240073342034613420344B34653479342034AE
:102134004F34553454340034503472346534733469
:1021440073342034613420344B346534793420348E
:1021540049344E34003443346C3461347634653459
:10216400203443346F3472347234653463347434D9
:1021740061340034543465346D34703465347234ED
:10218400613474347534723461343A34003425342F
:10219400643425346334433400342034203400342C
:10234A00F030F0007008831603138605F030F000B1
:10235A00700886048113080001300A168A11972230
:10236A000A168A110830F400C930F300F30BBB29AE
:10237A00F40BBB29C02908007E088A007F08820066
:10238A000A168A11C1210A168A118000840A0408D1
:10239A007D0603190034FF0A0319FE0AC5293134E0
:1023AA0032343334413434343534363442343734C5
:1023BA003834393443342A343034233444343134CD
:1023CA0032343334413434343534363442343734A5
:1023DA003834393443342A34303423344434092ADF
:1023EA007408FF00730884000A168A1100200A166E
:1023FA008A110A168A11CD220A168A110130F307A8
:10240A000318F40A0030F407740883120313FF0058
:10241A00730884000A168A1100200A168A11003AE3
:10242A00031D182A192AF5290800F800F401F501F4
:10243A007008F200F3017208F6007308F700781CBE
:10244A00272A282A2E2A7608F4070318F50A770875
:10245A00F50701300310F60DF70DFF3E031D2F2A75
:10246A000310F80C7808031D3B2A3C2A242A750815
:10247A00F1007408F000080083160313880127305E
:10248A00F400F530F300F30B482AF40B482A023023
:10249A000A168A1197220A168A1128300A168A11F0
:1024AA0097220A168A1101300A168A1197220A16E9
:1024BA008A110C300A168A1197220A168A110630D6
:1024CA000A168A1197220A168A110800F8000230A1
:1024DA0078020318712A722A7F2A75080F39803800
:1024EA00F7007708F90079080A168A1197220A165E
:1024FA008A118B2A75080F39C038F7007708F90056
:10250A0079080A168A1197220A168A117608F300A0
:10251A000030031D8030F4000A168A11F4210A16CD
:10252A008A110800F200F0307205F00083120313DA
:10253A0008080F39700488000810881400008312F4
:10254A00031388100330F1009730F000F00BAB2A28
:10255A00F10BAB2AB02A7208F00004300310F00D18
:10256A00FF3E031DB32A8312031308080F397004B0
:10257A008800881400008312031388100830F100C1
:10258A00C930F000F00BC72AF10BC72ACC2A080081
:10259A00F200F0307205F0008312031308080F39B5
:1025AA00700488000814881400008312031388102A
:1025BA000330F1009730F000F00BE12AF10BE12A29
:1025CA00E62A7208F00004300310F00DFF3E031DE6
:1025DA00E92A8312031308080F3970048800881443
:1025EA0000008312031388100830F100C930F0008C
:1025FA00F00BFD2AF10BFD2A022B0800780879045A
:10260A000319082B092B382BFD01FD0A172B013062
:10261A000310F80DF90DFF3E031D0D2B0130FC00D0
:10262A007C08FD07F91F1A2B1B2B0C2B79087B0240
:10263A00031D212B78087A02031C242B252B2B2B14
:10264A007808FA027908031CFB03FB020130031025
:10265A00F90CF80CFF3E031D2C2B0130FD02031D63
:10266A00372B382B1B2B7B08F9007A08F800080057
:10267A0000307005F80000307105F90080307205ED
:10268A00FA007F307305FB007B087A04790478042A
:10269A00031D502B512B592B0030F3000030F20050
:1026AA000030F1000030F00000307405F80000300E
:1026BA007505F90080307605FA007F307705FB0052
:1026CA007B087A0479047804031D6C2B6D2B752B17
:1026DA000030F7000030F6000030F5000030F4005A
:1026EA0077087306031D832B76087206031D832B56
:1026FA0075087106031D832B740870060319862B4F
:10270A00872B892B03108A2B03140800C92B700806
:10271A0084008317711C831300080319952B962BC9
:10272A00A92B720884000A168A110A200A168A112D
:10273A00F500700884008317711C8313000875065E
:10274A000319A82BA92BBF2B720884000A168A1119
:10275A000A200A168A11F500700884008317711C72
:10276A0083130008F60075087602F000F101031CD5
:10277A00F103D92B0130F0070318F10A0030F107F1
:10278A000130F5007508F2070130F3020030031C2E
:10279A00F403F402730A031DD62B740A031DD62B05
:1027AA00D72B8C2BF001F1010800831203132308A5
:1027BA00F3002208F2002108F1002008F00000309E
:1027CA00F7000030F6000030F5000030F4000A1679
:1027DA008A113D230A168A11031CF42BF52B062CA9
:1027EA00831203132408840083138001840A80015E
:1027FA000030A3000030A2000030A1000030A00089
:10280A00352C8312031323087F39FC00FD010310C2
:10281A00FC0DFD0D240884007C0883138000840AC3
:10282A007D088000220D220D0139FC00FD012408DB
:10283A0084007C088004840A7D08800424088400BB
:10284A0082308007840F00080318000AFF00FF3057
:10285A007F0780008403230880393F38A300A2132E
:10286A0008000310831603132A0D2B0DAC002C0845
:10287A0083120313EE006E08031D442C452C502CC2
:10288A00003083160313AB000030AA000030A90001
:10289A000030A800C72C831603132808AC002908A7
:1028AA00AD002A08AE002B08AF001F300310AF0C92
:1028BA00AE0CAD0CAC0CFF3E031D5B2C2C08B0001B
:1028CA00300883120313ED0083160313AA17FF308F
:1028DA00A805FF30A905FF30AA050030AB059630E0
:1028EA0083120313EE02EE1F7B2C7C2C9A2C6E08AB
:1028FA00803A973E0318822C832C842C452C013075
:10290A00031083160313AB0CAA0CA90CA80CFF3EE8
:10291A00031D852C0130AC002C0883120313EE072B
:10292A00031D982C992C842CB52C20306E02031C84
:10293A009F2CA02CB02C452C013083160313AC001D
:10294A000310A80DA90DAA0DAB0DAC0BA52C0130D7
:10295A0083120313EE026E08031DB42CB52CA12CAE
:10296A006D080319B92CBA2CC72C83160313A809AE
:10297A00A909AA09AB09A80A0319A90A0319AA0AE3
:10298A000319AB0A080000307005F8000030710521
:10299A00F90080307205FA007F307305FB007B086E
:1029AA007A0479047804031DDB2CDC2CE42C003037
:1029BA00F3000030F2000030F1000030F000003087
:1029CA007405F80000307505F90080307605FA00C4
:1029DA007F307705FB007B087A0479047804031DAD
:1029EA00F72CF82C002D0030F7000030F6000030EC
:1029FA00F5000030F400F31F032D042D282D0030BC
:102A0A00F8000030F9000030FA008030FB0070084E
:102A1A00F8027108031C710F132D142DF9027208A4
:102A2A00031C720F192D1A2DFA027308031C730F57
:102A3A001F2D202DFB027B08F3007A08F20079088B
:102A4A00F1007808F000F71F2B2D2C2D502D0030A7
:102A5A00F8000030F9000030FA008030FB007408FA
:102A6A00F8027508031C750F3B2D3C2DF9027608F8
:102A7A00031C760F412D422DFA027708031C770FAB
:102A8A00472D482DFB027B08F7007A08F6007908E3
:102A9A00F5007808F4008030F3068030F7067708EE
:102AAA007302031D622D76087202031D622D7508DA
:102ABA007102031D622D740870020318652D662DBC
:102ACA00682D0310692D03140800F800780803190B
:102ADA006F2D702D842DF31F732D742D842D700985
:102AEA00FA007109FB007209FC007309FD00FA0A79
:102AFA000319FB0A0319FC0A0319FD0A8C2D730832
:102B0A00FD007208FC007108FB007008FA007308E7
:102B1A00720471047004031D932D942D9D2D0030B1
:102B2A00F3000030F2000030F1000030F000232EF4
:102B3A009630F4007408F900AF2D0130F4007408DF
:102B4A00F90701300310FD0CFC0CFB0CFA0CFF3EDC
:102B5A00031DA72DFE307D05031DB42DB52DA22D15
:102B6A00D12D0130F4007408F9070130FA0700305A
:102B7A0003180130FB07003003180130FC0700304E
:102B8A0003180130FD0701300310FD0CFC0CFB0C8F
:102B9A00FA0CFF3E031DC92DFF307D05031DD62DFE
:102BAA00D72DB62DE32D0130F9020130F4000310C0
:102BBA00FA0DFB0DFC0DFD0DF40BDC2DFC1BE62DB7
:102BCA00E72DED2D023079020318EC2DED2DD82DCD
:102BDA007918F02DF12DF92DFF30FA05FF30FB059C
:102BEA007F30FC05FF30FD050310F90C7908F4006D
:102BFA00F501F601F70118300310F40DF50DF60D85
:102C0A00F70DFF3E031D012E7408FA047508FB0434
:102C1A007608FC047708FD0478080319152E162E89
:102C2A001B2EF31F192E1A2E1B2EFD177D08F300DB
:102C3A007C08F2007B08F1007A08F000080083168D
:102C4A0003132508A70001300310A70DFF3E031D3B
:102C5A00292E0310270D240784000A168A110A2038
:102C6A000A168A11A8000A168A110A200A168A1157
:102C7A00A9000A168A110A200A168A11AA000A1637
:102C8A008A110A200A168A11AB002B08AF002A08FB
:102C9A00AE002908AD002808AC00EF2EFF30A507CA
:102CAA000318A60AFF30A6072508A700013003105B
:102CBA00A70DFF3E031D5C2E0310270D2407840079
:102CCA000A168A110A200A168A11A8000A168A11F7
:102CDA000A200A168A11A9000A168A110A200A1657
:102CEA008A11AA000A168A110A200A168A11AB004A
:102CFA002B0883120313DC00831603132A0883129A
:102D0A000313DB0083160313290883120313DA0063
:102D1A0083160313280883120313D9008316031397
:102D2A002F0883120313A800831603132E08831295
:102D3A000313A700831603132D0883120313A60097
:102D4A00831603132C0883120313A5008316031397
:102D5A00230883120313AC00831603132208831279
:102D6A000313AB0083160313210883120313AA006B
:102D7A0083160313200883120313A9000A128A1167
:102D8A0056200A168A11831203132808E00027081E
:102D9A00DF002608DE002508DD000A128A157825DC
:102DAA000A168A11831203135C0883160313AF00F1
:102DBA00831203135B0883160313AE0083120313F3
:102DCA005A0883160313AD00831203135908831696
:102DDA000313AC0025082604031DF42EF52E532EEA
:102DEA002F08A3002E08A2002D08A1002C08A0007D
:102DFA00080020308400A030F0000408F1001030F0
:102E0A00F2007008840083170008F300F00A7108C2
:102E1A008400831373088000F10AF20B062F8312D1
:102E2A000313B001B101B201831203133108320452
:102E3A00031D202F212F4E2FFE3086004230F00036
:102E4A00F00B252F00002D2F2008F0007008B0008D
:102E5A0083120313061E322F332F292F382F2108EE
:102E6A00F0007008B000861E3B2F3C2F342F412FF4
:102E7A002208F0007008B000061F442F452F3D2F8E
:102E8A004A2F2308F0007008B000861F4D2F4E2FDE
:102E9A00462F31033204031D532F542F812FFD3047
:102EAA0086004230F000F00B582F0000602F2408F3
:102EBA00F0007008B00083120313061E652F662FF8
:102ECA005C2F6B2F2508F0007008B000861E6E2F4D
:102EDA006F2F672F742F2608F0007008B000061FA6
:102EEA00772F782F702F7D2F2708F0007008B000F9
:102EFA00861F802F812F792F023031063204031D5D
:102F0A00872F882FB52FFB3086004230F000F00B58
:102F1A008C2F0000942F2808F0007008B00083124C
:102F2A000313061E992F9A2F902F9F2F2908F0001E
:102F3A007008B000861EA22FA32F9B2FA82F2A0845
:102F4A00F0007008B000061FAB2FAC2FA42FB12FD2
:102F5A002B08F0007008B000861FB42FB52FAD2FD4
:102F6A00033031063204031DBB2FBC2FE92FF73083
:102F7A0086004230F000F00BC02F0000C82F2C084A
:102F8A00F0007008B00083120313061ECD2FCE2F57
:102F9A00C42FD32F2D08F0007008B000861ED62F3C
:102FAA00D72FCF2FDC2F2E08F0007008B000061F95
:102FBA00DF2FE02FD82FE52F2F08F0007008B00080
:102FCA00861FE82FE92FE12F0130B1070318B20A53
:102FDA000030B2073208803AFF0080307F02031DBA
:102FEA00F82F04303102031CFB2FFC2F192F8312F8
:062FFA000313300808007B
:08400000FF3FFF3FFF3FFF3FC0
:04400E00D520FF3F7B
:00000001FF
