:100000000A128A11DA2F7E088A007F0882000A12FB
:100010008A1103200A128A118000840A04087D06CE
:1000200003190034FF0A0319FE0A07288312031379
:100030002308F3002208F2002108F1002008F00054
:100040000030F7000030F6000030F5000030F4001A
:100050000A168A1102250A128A11031C3028312837
:100060004228831203132408840083138001840A26
:1000700080010030A3000030A2000030A100003059
:10008000A00071288312031323087F39FC00FD01AF
:100090000310FC0DFD0D240884007C0883138000F0
:1000A000840A7D088000220D220D0139FC00FD012B
:1000B000240884007C088004840A7D0880042408C5
:1000C000840082308007840F00080318000AFF00B4
:1000D000FF307F0780008403230880393F38A30066
:1000E000A21308008312031328088039AD002D08DD
:1000F000B2002808AD002D07AE002E08B800A71FDB
:1001000082288328842838143808031988288928E5
:100110009828380A031D8D288E2896280030A800BC
:100120000030A7000030A6000030A500A717A028C7
:100130000030A8000030A7000030A6000030A50065
:100140002C088039AD002D08B2062C08AD002D0713
:10015000AE002E08B700AB1FAE28AF28B02837146A
:1001600037080319B428B528C428370A031DB9284D
:10017000BA28C2280030AC000030AB000030AA0022
:100180000030A900AB17CC280030AC000030AB0029
:100190000030AA000030A90037080319D028D12860
:1001A000D6283808031DD528D628DF280030A80017
:1001B0000030A7000030A6000030A500D22B250893
:1001C000AD002D08F0002B080A168A116F230A12C1
:1001D0008A11710883120313BE007008BD003D0828
:1001E000AD00AE01AF01B0013008B6002F08B50078
:1001F0002E08B4002D08B3003E08AD00AE01AF01DB
:10020000B0013008BC002F08BB002E08BA002D0832
:10021000B9002608AD002D08F0002A080A168A1138
:100220006F230A128A11710883120313BE0070082B
:10023000BD003D08AD00AE01AF01B0012D08B30710
:100240002E0803110318013E03192729B4072F08AC
:1002500003110318013E03192E29B50730080311B5
:100260000318013E03193529B6073E08AD00AE015B
:10027000AF01B0012D08B9072E0803110318013E84
:1002800003194329BA072F0803110318013E031964
:100290004A29BB07300803110318013E03195129ED
:1002A000BC072708AD002D08F00029080A168A119E
:1002B0006F230A128A11710883120313BE0070089B
:1002C000BD003D08AD00AE01AF01B0012D08B30780
:1002D0002E0803110318013E03196F29B4072F08D4
:1002E00003110318013E03197629B50730080311DD
:1002F0000318013E03197D29B6073E08AD00AE0183
:10030000AF01B0012D08B9072E0803110318013EF3
:1003100003198B29BA072F0803110318013E03198B
:100320009229BB07300803110318013E03199929CC
:10033000BC070830AD000310B30DB40DB50DB60DFC
:10034000AD0B9B292608AD002D08F00029080A16E0
:100350008A116F230A128A11710883120313BE00D7
:100360007008BD003D08AD003E08AE00AF01B00111
:100370002D08B3072E0803110318013E0319C129E4
:10038000B4072F0803110318013E0319C829B50744
:10039000300803110318013E0319CF29B6072508B9
:1003A000AD002D08F0002A080A168A116F230A12E0
:1003B0008A11710883120313BE007008BD003D0846
:1003C000AD003E08AE00AF01B0012D08B3072E0806
:1003D00003110318013E0319EE29B4072F08031176
:1003E0000318013E0319F529B50730080311031856
:1003F000013E0319FC29B6070830AD000310B30D08
:10040000B40DB50DB60DAD0BFE292508AD002D08B8
:10041000F00029080A168A116F230A128A1171083E
:1004200083120313BE007008BD003D08AD003E08F6
:10043000AE00AF01B0012D08B3072E080311031859
:10044000013E0319242AB4072F0803110318013EA3
:1004500003192B2AB507300803110318013E0319AD
:10046000322AB6072608AD002D08F0002B080A1620
:100470008A116F230A128A11710883120313BE00B6
:100480007008BD003D08AD003E08AE00AF01B001F0
:100490002D08B9072E0803110318013E0319512A2C
:1004A000BA072F0803110318013E0319582ABB0786
:1004B000300803110318013E03195F2ABC072708FF
:1004C000AD002D08F0002A080A168A116F230A12BF
:1004D0008A11710883120313BE007008BD003D0825
:1004E000AD003E08AE00AF01B0012D08B9072E08DF
:1004F00003110318013E03197E2ABA072F080311BE
:100500000318013E0319852ABB073008031103189D
:10051000013E03198C2ABC072708AD002D08F00006
:100520002B080A168A116F230A128A117108831286
:100530000313BE007008BD003D08AD003E08AE00CC
:10054000AF01B00108300310AD0DAE0DAF0DB00D11
:10055000FF3E031DA32A2D08B9072E080311031817
:10056000013E0319B42ABA072F0803110318013EEC
:100570000319BB2ABB07300803110318013E0319F6
:10058000C22ABC073308AD003408AE003508AF00FE
:100590003608B00018300310B00CAF0CAE0CAD0C28
:1005A000FF3E031DCB2A2D08B9072E08031103189F
:1005B000013E0319DC2ABA072F0803110318013E74
:1005C0000319E32ABB07300803110318013E03197E
:1005D000EA2ABC070830AD000310B30DB40DB50D09
:1005E000B60DAD0BEC2A38083707AD00AE01AE0DE5
:1005F0002D08823EBD002E080318013EFF3EBE00BE
:100600001E2B0130AD000310B90DBA0DBB0DBC0D92
:10061000AD0B032BB61F0D2B0E2B0F2B39140130F6
:10062000AD000310B30DB40DB50DB60DAD0B112B10
:10063000FF30BD070318BE0AFF30BE07BB1F212BCA
:10064000222B012BB701B61F262B272B432BFF3064
:100650003305AD00FF303405AE00FF303505AF0087
:100660007F303605B00030082F042E042D04031906
:100670003A2B3B2B3E2BB701B70A432B391C412B9E
:10068000422B432B3B2B37080319472B482B792B45
:100690000130B907003003180130BA0700300318E1
:1006A0000130BB07003003180130BC073C1C592B3C
:1006B0005A2B792B3908AD003A08AE003B08AF0041
:1006C0003C08B0000130B100300DB00CAF0CAE0CE6
:1006D000AD0CB10B642B3008BC002F08BB002E08FA
:1006E000BA002D08B9000130BD070318BE0A00305A
:1006F000BE073E08803AFF0080307F02031D822B38
:10070000FF303D02031C852B862B912B7F308312FB
:100710000313BC008030BB000030BA000030B900C9
:10072000C62B831203133E08803AFF0080307F02FD
:10073000031D9C2B01303D0203189F2BA02BAC2BDB
:10074000003083120313BC000030BB000030BA003D
:100750000030B900B201C62B831203133D08AD006F
:100760002D08B800FF30B905FF30BA057F30BB0552
:100770000030BC05381CBD2BBE2BBF2BBB17380867
:10078000AD0003102D0CAE002E08BC003208AD00E9
:100790002D08BC043C08A8003B08A7003A08A600A6
:1007A0003908A50008000A168A11B5220A128A1112
:1007B0000A168A1196230A128A110A168A119F2292
:1007C0000A128A110A168A1196220A128A110A1628
:1007D0008A11AA220A128A110A168A11F7220A120B
:1007E0008A117130831603138F0083160317890152
:1007F00083160313870185010A168A1111230A1231
:100800008A1170037104031D062C072C0C2C831213
:10081000031307168715102C831203130712871171
:100820000A168A112D230A128A1170037104031DFE
:100830001A2C1B2C202C8312031307168716242C2A
:100840008312031307128712153083160313B8009F
:100850004B30B700BD30B600B60B2C2CB70B2C2C90
:10086000B80B2C2C332C0A168A11EC230A128A118D
:10087000FF3083160313B6000330B700700836024A
:10088000C3007108031C710A3702C400C501C41BF0
:10089000C5034508C600C13083120313DC002030B5
:1008A000DB000030DA000030D9008316031346085D
:1008B000F3004508F2004408F1004308F00001305D
:1008C0000A168A116C260A128A11730883120313FE
:1008D000C2007208C1007108C0007008BF00463035
:1008E000C6002030C5002830C4000030C3000A1202
:1008F0008A159B230A128A11831203134208E0000F
:100900004108DF004008DE003F08DD000A128A15BA
:1009100078250A128A11831203135C0883160313C5
:10092000CA00831203135B0883160313C9008312E2
:1009300003135A0883160313C800831203135908BC
:1009400083160313C700413083120313C200203003
:10095000C1000030C0000030BF00831603134A08F6
:1009600083120313C600831603134908831203136B
:10097000C50083160313480883120313C4008316AB
:100980000313470883120313C3000A128A159B231B
:100990000A128A1183120313420883160313B30049
:1009A00083120313410883160313B2008312031347
:1009B000400883160313B100831203133F08831604
:1009C0000313B0000A128A154F220A128A118316E5
:1009D00003133308CE003208CD003108CC003008B4
:1009E000CB00413083120313DC005B30DB00983016
:1009F000DA00EA30D900831603134E08831203137A
:100A0000E000831603134D0883120313DF008316DF
:100A100003134C0883120313DE00831603134B08E1
:100A200083120313DD000A128A1578250A128A112F
:100A3000831203135C08C2005B08C1005A08C0009F
:100A40005908BF004530C6007F30C500A030C40043
:100A50000030C3000A128A159B230A128A118312DE
:100A60000313420883160313D200831203134108B1
:100A700083160313D1008312031340088316031354
:100A8000D000831203133F0883160313CF00C33033
:100A900083120313DC008830DB008030DA00003082
:100AA000D90083160313520883120313E000831640
:100AB0000313510883120313DF0083160313500836
:100AC00083120313DE00831603134F0883120313EC
:100AD000DD000A128A1578250A128A11831203137F
:100AE0005C0883160313D600831203135B08831676
:100AF0000313D500831203135A0883160313D4007B
:100B000083120313590883160313D300B530B600BC
:100B1000360883120313A000831603135608F3004C
:100B20005508F2005408F1005308F0000A168A1123
:100B300050250A128A11710883120313A20070084B
:100B4000A100DF30A3000030A400B9300A128A15DA
:100B50004C210A128A110A168A11C1220A128A111C
:100B6000F501AF3083160313B6003608F6000130E6
:100B70000A168A11C0230A128A11B930F300003014
:100B8000F4000A168A1149230A128A11BB30F300B5
:100B90008030F4000A168A1149230A128A11413062
:100BA000F300C830F2000030F1000030F00083168E
:100BB00003135608F7005508F6005408F5005308CB
:100BC000F4000A168A11CA250A128A110318E92D9F
:100BD000EA2DF82DF5016B3083160313B6003608A5
:100BE000F60002300A168A11C0230A128A112E2E2C
:100BF000831603135608F3005508F2005408F10059
:100C00005308F0004130F7009030F6000030F50056
:100C10000030F4000A168A11CA250A128A11031834
:100C2000122E132E212EF501883083160313B600E1
:100C30003608F60002300A168A11C0230A128A11F9
:100C40002E2EF5017A3083160313B6003608F6000F
:100C500002300A168A11C0230A128A111F30831625
:100C60000313B8007130B7001D30B600B60B362E36
:100C7000B70B362EB80B362E3D2E0A168A11C1221E
:100C80000A128A11F501A33083160313B600360841
:100C9000F60000300A168A11C0230A128A11C030E9
:100CA0000A168A1118240A128A110A128A154A2071
:100CB0000A128A1183160313B6003608EE006E0876
:100CC0000319632E642E782E6E080A168A114E249C
:100CD0000A128A11831603136E08B6006608E73EEF
:100CE00084003608831380000130B6003608E6071A
:100CF000023083160313B8000430B700B930B600D1
:100D0000B60B802EB70B802EB80B802E872E0530A9
:100D1000831603136602031C8E2E8F2E552E2F3042
:100D2000B6003608F0000430F1000030F200E73081
:100D30000A128A1504200A128A1170087104031D10
:100D4000A22EA32E6F2F0A168A11C1220A128A110F
:100D5000F5015C3083160313B6003608F600003048
:100D60000A168A11C0230A128A110330831603134C
:100D7000B8000830B7007630B600B60BBD2EB70B02
:100D8000BD2EB80BBD2E00000A168A11E1220A12F0
:100D90008A1170037104031DCE2ECF2ED32E831221
:100DA00003130717DA2E83120313071FD82ED92E29
:100DB000DA2E071383160313E6010A168A11C122DD
:100DC0000A128A11F501963083160313B60036080D
:100DD000F60000300A168A11C0230A128A11C030A8
:100DE0000A168A1118240A128A110A128A154A2030
:100DF0000A128A1183160313B6003608EE006E0835
:100E00000319032F042F182F6E080A168A114E2477
:100E10000A128A11831603136E08B6006608E73EAD
:100E200084003608831380000130B6003608E607D8
:100E3000023083160313B8000430B700B930B6008F
:100E4000B60B202FB70B202FB80B202F272F0230E7
:100E5000831603136602031C2E2F2F2FC42E34304B
:100E6000B6003608F0000430F1000030F200EC303B
:100E70000A128A1504200A128A1170087104031DCF
:100E8000422F432F562F0A168A11C1220A128A11A5
:100E9000F5015C3083160313B6003608F600003007
:100EA0000A168A11C0230A128A11962F0A168A116D
:100EB000C1220A128A11013083160313DD070318B9
:100EC000DE0A0030DE07F5014B30B6003608F600CA
:100ED00000300A168A11C0230A128A11962F0A16A8
:100EE0008A11C1220A128A11013083160313DD0709
:100EF0000318DE0A0030DE07F5014B30B600360875
:100F0000F60000300A168A11C0230A128A11033033
:100F100083160313B8000830B7007630B600B60B5E
:100F20008F2FB70B8F2FB80B8F2F00000330831636
:100F300003135D065E04031D9E2F9F2FBF2F0A160D
:100F40008A11C1220A128A11F50136308316031361
:100F5000B6003608F60000300A168A11C0230A12BD
:100F60008A11333083160313B800BB30B700DF306B
:100F7000B600B60BB92FB70BB92FB80BB92F153078
:100F800083160313B8004B30B700BD30B600B60B64
:100F9000C72FB70BC72FB80BC72FCE2F0A168A1132
:100FA000C1220A128A1183160313E601F12B0A12D9
:100FB0008A1100288317A030FD001230FE00D130C6
:100FC000FF00903084000A128A1107200A128A1149
:100FD000831603130A128A1503200A128A11EE00DF
:100FE0008313D7308400EE300A168A118E220A123B
:100FF0008A1183120313EE0183010A128A11D32B83
:101006003034F50039287508840083130008031965
:101016000D280E281E28700884000A168A110A2038
:101026000A128A15F300750884000008730603196E
:101036001D281E283128700884000A168A110A20E5
:101046000A128A15F300750884000008F400730874
:101056007402F000F101031CF10349280130F3008A
:101066007308F5070130F3007308F0070130F10249
:101076000030031CF203F202710A031D4628720AAD
:10108600031D462847280628F001F10108002030F4
:1010960084009030F0000408F1001030F20070086F
:1010A600840083170008F300F00A71088400831394
:1010B60073088000F10AF20B522883120313B00161
:1010C600B101B2018312031331083204031D6C28E7
:1010D6006D289A28FE3086004230F000F00B712809
:1010E600000079282008F0007008B000831203136E
:1010F600061E7E287F28752884282108F00070089F
:10110600B000861E8728882880288D282208F000AF
:101116007008B000061F9028912889289628230871
:10112600F0007008B000861F99289A28922831038B
:101136003204031D9F28A028CD28FD3086004230AA
:10114600F000F00BA4280000AC282408F00070087A
:10115600B00083120313061EB128B228A828B728A8
:101166002508F0007008B000861EBA28BB28B328F0
:10117600C0282608F0007008B000061FC328C4283F
:10118600BC28C9282708F0007008B000861FCC28A4
:10119600CD28C528023031063204031DD328D428B1
:1011A6000129FB3086004230F000F00BD828000001
:1011B600E0282808F0007008B00083120313061E0A
:1011C600E528E628DC28EB282908F0007008B0009E
:1011D600861EEE28EF28E728F4282A08F000700873
:1011E600B000061FF728F828F028FD282B08F00085
:1011F6007008B000861F00290129F928033031063E
:101206003204031D072908293529F73086004230A4
:10121600F000F00B0C29000014292C08F0007008CF
:10122600B00083120313061E19291A2910291F2933
:101236002D08F0007008B000861E222923291B29DC
:1012460028292E08F0007008B000061F2B292C292B
:10125600242931292F08F0007008B000861F342990
:1012660035292D290130B1070318B20A0030B2071B
:101276003208803AFF0080307F02031D4429043083
:101286003102031C472948296528831203133008B5
:10129600080083120313AD002130A5002508AA001B
:1012A600382A25302E06031959295A2966292E0867
:1012B600A5002D0884002508831380000130A500B1
:1012C6002508AD07382AA8017F292A088400831338
:1012D6000008A5002508AE000230A5002508AA07CB
:1012E6002E08A5002D0884002508831380000130F0
:1012F600A5002508AD07382A0130A007FF302007D2
:1013060084000A168A110A200A128A15AE00A50060
:10131600A6012608003A0319912973292508003ADF
:1013260003194A2A633A03196829073A03199F29B8
:101336000D3A03199F2973292A088400831300088C
:10134600AB00840A0008AC000230A5002508AA07F5
:10135600AC1FAE29AF29B8290330A5002508A8047B
:10136600AB09AC09AB0A0319AC0AAE01AE0A2E08EA
:10137600A5002507013E84000A168A110A200A12D2
:101386008A15A6000A168A110A200A128A15A700CB
:1013960027082C02031DD12926082B020318D4295D
:1013A600D529D629E0290130A5002508AE07053044
:1013B6002E06031DDF29E029BA2928080339031957
:1013C600E529E629F1292D30A5002D0884002508F8
:1013D600831380000130A5002508AD072E08A5005F
:1013E6002508A9002F2A0A30F8000030F90029083C
:1013F600A5002507013E84000A168A110A200A1252
:101406008A15F0000A168A110A200A128A15F100B6
:101416002C08F3002B08F2000A168A11BE240A12C1
:101426008A157108FB007008FA000A168A118424CE
:101436000A128A157808303E83120313A60026087E
:10144600AE002E08A5002D08840025088313800011
:101456000130A5002508AD07FF30A5002508A9071E
:10146600290A031D372A382AF6290130A007FF303A
:10147600200784000A168A110A200A128A15A50076
:101486002508AE002E08031D492A4A2A54292D088C
:101496008400831380010800831603133308F300C6
:1014A6003208F2003108F1003008F0000030F70091
:1014B6000030F6000030F5000030F4000A168A11FC
:1014C600CA250A128A150318692A6A2A792A213036
:1014D60083160313D7000030D8000030B300003065
:1014E600B2000030B1000030B0009A2B831603130F
:1014F6003308F3003208F2003108F1003008F0003A
:101506000030F7000030F6000030F5000030F4003F
:101516000A168A1102250A128A15031C932A942A8E
:10152600A32A223083160313D7000030D8000030D8
:10153600B3000030B2000030B1000030B0009A2B8A
:10154600BF3083120313DC008030DB000030DA008A
:101556000030D9004030A8000030A7000030A600B7
:101566000030A500B430ED006D08A4008316031307
:10157600330883120313A30083160313320883125E
:101586000313A20083160313310883120313A10069
:1015960083160313300883120313A0000A128A115C
:1015A60016200A128A15831203132308AC00220898
:1015B600AB002108AA002008A9000A128A1172208D
:1015C6000A128A15831203132808E0002708DF0091
:1015D6002608DE002508DD000A128A1578250A127B
:1015E6008A15831203135C0883160313B300831250
:1015F60003135B0883160313B200831203135A08FE
:1016060083160313B10083120313590883160313B9
:10161600B000FF30B4070318B50AFF30B50733082A
:10162600A3003208A2003108A1003008A0000B3048
:1016360083120313ED006D0883160313A40008300C
:10164600A5000030A6000A168A1126270A128A1556
:10165600831603132308B3002208B2002108B10041
:101666002008B000330883120313DC00831603132B
:10167600320883120313DB00831603133108831227
:101686000313DA0083160313300883120313D900F9
:101696003F30A8003130A7007230A6001830A500F0
:1016A600831603133408F0003508F1000030F11BEF
:1016B600FF30F200F30001300A168A116C260A1276
:1016C6008A15730883120313AC007208AB00710805
:1016D600AA007008A9000A128A1172200A128A1535
:1016E600831203132808E0002708DF002608DE001F
:1016F6002508DD000A128A1578250A128A15831232
:1017060003135C0883160313B300831203135B08E9
:1017160083160313B200831203135A0883160313A6
:10172600B10083120313590883160313B00008008F
:101736008312031346088039C7004708D0004608BD
:10174600C7004707C8004808D700C51FAB2BAC2BFE
:10175600AD2B571457080319B12BB22BC22B570ABE
:10176600031DB62BB72BBF2B0030C6000030C500BB
:101776000030C4000030C300C517C601CA2B0030B4
:10178600C6000030C5000030C4000030C300420867
:101796008039C7004708D0064208C7004707C80077
:1017A6004808D800C11FD82BD92BDA2B5814580853
:1017B6000319DE2BDF2BEF2B580A031DE32BE42B3B
:1017C600EC2B0030C2000030C1000030C0000030F9
:1017D600BF00C117C201F72B0030C2000030C100A4
:1017E6000030C0000030BF004208410440043F04FE
:1017F600031DFE2BFF2B182C0030C6000030C50041
:101806000030C4000030C3008030C5047F30C604F9
:101816005008C7004708C6044608C2004508C1006C
:101826004408C0004308BF00772D5708031D1C2C31
:101836001D2C262C0030C2000030C1000030C00034
:101846000030BF00772D5708C700C8014808CA00F6
:1018560058084702C900031CCA0349087F3ED10045
:101866004A080318013E003ED2004608CF0045084C
:10187600CE004408CD004308CC000030C60000303E
:10188600C5000030C4000030C3000030D600003070
:10189600D5000030D4000030D300D8019C2C580865
:1018A6000319562C572C772C0130C7000310CC0D8A
:1018B600CD0DCE0DCF0DC70B592C0130C70003102F
:1018C600C30DC40DC50DC60DC70B622CD61F6C2CDF
:1018D6006D2C6E2C43140130C7000310D30DD40DAC
:1018E600D50DD60DC70B702C42084F02031D852C53
:1018F60041084E02031D852C40084D02031D852C10
:101906003F084C02031C882C892C982C56173F083C
:10191600CC024008031C400FCD024108031C410FB6
:10192600CE024208031C420FCF020130C70047080F
:10193600D8071A305802031CA12CA22C522C4F088F
:101946004E044D044C040319A92CAA2CC92C53147B
:10195600C92C0130C7000310C30DC40DC50DC60D3B
:10196600C70BAE2CD61FB82CB92CBA2C4314013099
:10197600C7000310D30DD40DD50DD60DC70BBC2C47
:10198600FF30D1070318D20AFF30D207C51FCC2C6F
:10199600CD2CAC2CD801D61FD12CD22CEE2CFF305E
:1019A6005305C700FF305405C800FF305505C90070
:1019B6007F305605CA004A084904480447040319FB
:1019C600E52CE62CE92CD801D80AEE2C431CEC2C8D
:1019D600ED2CEE2CE62C58080319F22CF32C242DB2
:1019E6000130C307003003180130C4070030031864
:1019F6000130C507003003180130C607461C042D08
:101A0600052D242D4308C7004408C8004508C90011
:101A16004608CA000130CB004A0DCA0CC90CC80CD6
:101A2600C70CCB0B0F2D4A08C6004908C50048084D
:101A3600C4004708C3000130D1070318D20A00309A
:101A4600D2075208803AFF0080307F02031D2D2DF9
:101A5600FF305102031C302D312D3F2DFF308312F4
:101A66000313D1000030D2000030C6000030C5009C
:101A76000030C4000030C300831203135208803ABA
:101A8600FF0080307F02031D4A2D013051020318EA
:101A96004D2D4E2D5B2D83120313D101D201003043
:101AA600C6000030C5000030C4000030C300D001BD
:101AB600831203135108C7004708D700571C642D2B
:101AC600652D672DC5176B2D7F30C7004708C505E7
:101AD6005708C7000310470CC8004808C60050083E
:101AE600C7004708C6040F2C0800831203135C08BE
:101AF6008039E1006108E9005C08E1006107E20065
:101B06006208EB00DB1F882D892D8A2D6B146B086C
:101B160003198E2D8F2D9F2D6B0A031D932D942D4A
:101B26009C2D0030DC000030DB000030DA00003095
:101B3600D900DB17DC01A72D0030DC000030DB000C
:101B46000030DA000030D90060088039E100610811
:101B5600EA006A0869060319B12DB22DB32D69177B
:101B66006008E1006107E2006208EA00DF1FBC2DA1
:101B7600BD2DBE2D6A146A080319C22DC32DD32D9F
:101B86006A0A031DC72DC82DD02D0030E000003095
:101B9600DF000030DE000030DD00DF17E001DB2D66
:101BA6000030E0000030DF000030DE000030DD00F5
:101BB6006B086A020318E02DE12D252E691FE42D1E
:101BC600E52DE92D8030E1006108E9066B08E100AA
:101BD6006108EC006A08E1006108EB006C08E100AE
:101BE6006108EA005908E1006108EC005D08E100BF
:101BF6006108D9006C08E1006108DD005A08E100BF
:101C06006108EC005E08E1006108DA006C08E1009A
:101C16006108DE005B08E1006108EC005F08E10096
:101C26006108DB006C08E1006108DF005C08E10088
:101C36006108EC006008E1006108DC006C08E10066
:101C46006108E000EC016A08E100E2016208E400D4
:101C56006B086102E300031CE4036408803AFF009A
:101C660080307F02031D392E1A306302031C3C2E7E
:101C76003D2E7A2E831203135C085B045A04590422
:101C8600031D462E482E0130492E0030E100610822
:101C9600EC000030DC000030DB000030DA00003001
:101CA600D9006A08E1006108EB00822E6C1C5C2EEC
:101CB6005D2E662E6C08E1000310610C0138E2000F
:101CC6006208EC00682E0310EC0C591C6B2E6C2E6F
:101CD6006D2EEC170130E1005C0DDC0CDB0CDA0C30
:101CE600D90CE10B6F2E0130E1006108EB0783127E
:101CF60003136A086B02031C812E822E592E691B60
:101D0600852E862ED12E6B08031D8A2E8B2E942EA1
:101D16000030DC000030DB000030DA000030D90093
:101D2600FF2F5D08D9075E0803110318013E03194A
:101D36009D2EDA075F0803110318013E0319A42E2E
:101D4600DB07600803110318013E0319AB2EDC07FD
:101D56005C1CAE2EAF2E852F6C1CB22EB32EBC2E65
:101D66006C08E1000310610C0138E2006208EC0027
:101D7600BE2E0310EC0C591CC12EC22EC32EEC171E
:101D86000130E1005C0DDC0CDB0CDA0CD90CE10B4C
:101D9600C52E0130E1006108EB07852F5C08803A0B
:101DA600FF006008803A7F02031DE32E5F085B0296
:101DB600031DE32E5E085A02031DE32E5D08590239
:101DC6000318E62EE72E3F2FFF30E100FF30E2003A
:101DD600FF30E300FF30E4005D08E5005E08E60042
:101DE6005F08E7006008E8005908E5025A08031C86
:101DF6005A0FFE2EFF2EE6025B08031C5B0F042F14
:101E0600052FE7025C08031C5C0F0A2F0B2FE80264
:101E16006508E10766080318660F122F132FE207FD
:101E260067080318670F182F192FE30768080318A8
:101E3600680AE4076408DC006308DB006208DA006D
:101E46006108D9008030E1006108E906EC09EC0A76
:101E56006C08031D2F2F302F4D2F0130D90700306E
:101E660003180130DA07003003180130DB070030B1
:101E760003180130DC074D2F5D08D9025E08031CEC
:101E86005E0FDA025F08031C5F0FDB026008031CAB
:101E9600600FDC025C085B045A045904031D542FCE
:101EA600552F812F6C08031D592F5A2F812F003073
:101EB600DC000030DB000030DA000030D900FF2FF4
:101EC6000130E1000310D90DDA0DDB0DDC0DE10B5D
:101ED600652FEC1F6F2F702F712F59146C1C742FE8
:101EE600752F782F0314EC0D7A2F0310EC0D6B0869
:101EF60003197E2F7F2F812F0130EB02DB1F842FEA
:101F0600852F632FEA01EC1F892F8A2F982F6C08E3
:101F16007F3903198F2F902F932FEA01EA0A982F02
:101F2600591C962F972F982F902F6A0803199C2FCC
:101F36009D2FD12F0130D907003003180130DA0761
:101F4600003003180130DB07003003180130DC07CE
:101F56005C1CAE2FAF2FD12F5908E1005A08E200C2
:101F66005B08E3005C08E4000130E500640DE40C66
:101F7600E30CE20CE10CE50BB92F6408DC00630806
:101F8600DB006208DA006108D9006B0A0319CC2F5E
:101F9600CD2FD12F0130E1006108EB076B0A031941
:101FA600D52FD62FDB2F6B08031DDA2FDB2FE92F5A
:101FB6000030DC000030DB000030DA000030D900F1
:101FC6006B08031DE72FE82FE92FE9016B1CEC2FA7
:101FD600ED2FEF2FDB17F32F7F30E1006108DB05D4
:101FE6006B08E1000310610CE2006208DC00E91FE7
:101FF600FD2FFE2FFF2FDC170800FF1B0A28831377
:102006007F1883170008840A0319FF0A0800103096
:102016008A000408840A82070034013400340A3432
:10202600003464340034E834033410342734003484
:10203600003400340034C434FF347F343F348034F9
:10204600EF34FF34BE349034E134A9343E34EC34FA
:1020560082347634BE348234AD342B343E340E347E
:102066003C34C334BD348734D13413343D34413425
:102076007834D334BB3432343034323431340034EF
:102086002A34003449346E34673472346534733418
:102096006F3420344E346F34203450346534723407
:1020A6006D3469347434693464346F3400344334C1
:1020B6006C34613476346534203469346E34633478
:1020C6006F3472347234653463347434613400347A
:1020D60043346C34613476346534203443346F349D
:1020E6007234723465346334743461340034443485
:1020F600693473346D3469346E34753469347234CA
:102106002034543465346D347034003454346534BA
:102116006D3470342034413464346534633475343A
:102126006134643461340034413475346D3465345B
:102136006E347434613472342034543465346D34FE
:10214600703400345034723465347334733420344C
:10215600613420344B34653479342E3400345034B1
:1021660072346534733473342034613420344B3420
:10217600653479340034543445344D3450343A346B
:102186000034253464342534633443340034203435
:0421960020340034BD
:10251C0064008001840A04060319003404068F2A1F
:10252C0083160313071507138312031307130711DD
:10253C000800831603130714871107128312031361
:10254C00071087110712080083160313871407124C
:10255C008712831203138710071287120800F030BA
:10256C00F0007008831603138605F030F000700835
:10257C0086048113080001300A168A1118240A16E1
:10258C008A110830F400C930F300F30BCB2AF40B9A
:10259C00CB2AD02A08003134323433344134343429
:1025AC0035343634423437343834393443342A34BD
:1025BC0030342334443483120313071DE62AE72AEC
:1025CC00EE2A013083160313E1000030E200F22AF8
:1025DC0083160313E101E2016208F1006108F000C7
:1025EC00080001308316031788008312031385013A
:1025FC008316031305148510051185119F171F12DF
:10260C009F12C330831203139F051F083F394038B4
:10261C009F001F14080083120313071C162B172B83
:10262C001E2B013083160313E3000030E400262B2D
:10263C000718212B222B262B83160313E301E4010D
:10264C00831603136408F1006308F000080083127A
:10265C000313871C322B332B3A2B013083160313B5
:10266C00DF000030E000422B87183D2B3E2B422B25
:10267C0083160313DF01E001831603136008F100D6
:10268C005F08F00008005E2B7408FF0073088400DC
:10269C000A168A1100200A168A110A168A114E246B
:1026AC000A168A110130F3070318F40A0030F407F4
:1026BC00740883120313FF00730884000A168A112E
:1026CC0000200A168A11003A031D6D2B6E2B4A2B23
:1026DC000800F800F401F5017008F200F30172082B
:1026EC00F6007308F700781C7C2B7D2B832B760867
:1026FC00F4070318F50A7708F50701300310F60DF7
:10270C00F70DFF3E031D842B0310F80C7808031DF6
:10271C00902B912B792B7508F1007408F0000800B0
:10272C008316031388012730F400F530F300F30B04
:10273C009D2BF40B9D2B02300A168A1118240A16B5
:10274C008A1128300A168A1118240A168A110130A7
:10275C000A168A1118240A168A110C300A168A11C4
:10276C0018240A168A1106300A168A1118240A1619
:10277C008A110800F800023078020318C62BC72B08
:10278C00D42B75080F398038F7007708F9007908D1
:10279C000A168A1118240A168A11E02B75080F39AB
:1027AC00C038F7007708F90079080A168A1118243E
:1027BC000A168A117608F3000030031D8030F400ED
:1027CC000A168A1149230A168A1108008312031368
:1027DC009F149F18F22BF32BEF2B1E08F200F30122
:1027EC00720883160313DB007308DC005C08F3002B
:1027FC005B08F2007208F300F2011E087207F40085
:10280C000030031801307307F5007408DB007508FD
:10281C00DC005C08DA005B08D9005A08F1005908A2
:10282C00F0000800F200F0307205F0008312031380
:10283C0008080F39700488000810881400008312EF
:10284C00031388100330F1009730F000F00B2C2CA0
:10285C00F10B2C2C312C7208F00004300310F00D0D
:10286C00FF3E031D342C8312031308080F39700428
:10287C008800881400008312031388100830F100BC
:10288C00C930F000F00B482CF10B482C4D2C0800F3
:10289C00F200F0307205F0008312031308080F39B0
:1028AC007004880008148814000083120313881025
:1028BC000330F1009730F000F00B622CF10B622C1E
:1028CC00672C7208F00004300310F00DFF3E031D5E
:1028DC006A2C8312031308080F39700488008814BB
:1028EC0000008312031388100830F100C930F00087
:1028FC00F00B7E2CF10B7E2C832C080078087904CD
:10290C000319892C8A2CB92CFD01FD0A982C013055
:10291C000310F80DF90DFF3E031D8E2C0130FC0049
:10292C007C08FD07F91F9B2C9C2C8D2C79087B02B5
:10293C00031DA22C78087A02031CA52CA62CAC2C07
:10294C007808FA027908031CFB03FB020130031020
:10295C00F90CF80CFF3E031DAD2C0130FD02031DDC
:10296C00B82CB92C9C2C7B08F9007A08F8000800CC
:10297C00F501F601700871040319C52CC62CFD2C49
:10298C00F701F70AD42C01300310F00DF10DFF3EC6
:10299C00031DCA2C0130F4007408F707F11FD72C63
:1029AC00D82CC92C01300310F50DF60DFF3E031D7C
:1029BC00D92C71087302031DE52C70087202031CDC
:1029CC00E82CE92CF02C7008F2027108031CF303BC
:1029DC00F302751401300310F10CF00CFF3E031DD3
:1029EC00F12C0130F702031DFC2CFD2CD82C7608A1
:1029FC00F1007508F000080000307005F800003098
:102A0C007105F90080307205FA007F307305FB0008
:102A1C007B087A0479047804031D152D162D1E2DC0
:102A2C000030F3000030F2000030F1000030F00014
:102A3C0000307405F80000307505F900803076051B
:102A4C00FA007F307705FB007B087A047904780460
:102A5C00031D312D322D3A2D0030F7000030F600D9
:102A6C000030F5000030F40077087306031D482D84
:102A7C0076087206031D482D75087106031D482D36
:102A8C007408700603194B2D4C2D4E2D03104F2D31
:102A9C00031408000310720D730DF4007408FA008F
:102AAC007A08031D5A2D5B2D642D0030F300003085
:102ABC00F2000030F1000030F000C92D7008F40075
:102ACC007108F5007208F6007308F7001F30031048
:102ADC00F70CF60CF50CF40CFF3E031D6D2D740871
:102AEC00F8007808F900F217FF30F005FF30F10517
:102AFC00FF30F2050030F3059630FA02FA1F872DED
:102B0C00882DA22D7A08803A973E03188E2D8F2D92
:102B1C00902D5B2D01300310F30CF20CF10CF00C2A
:102B2C00FF3E031D912D0130F4007408FA07031DBC
:102B3C00A02DA12D902DB92D20307A02031CA72D8C
:102B4C00A82DB42D5B2D0130F4000310F00DF10D08
:102B5C00F20DF30DF40BAB2D0130FA027A08031DC4
:102B6C00B82DB92DA92D79080319BD2DBE2DC92D50
:102B7C00F009F109F209F309F00A0319F10A031932
:102B8C00F20A0319F30A080000307005F80000304F
:102B9C007105F90080307205FA007F307305FB0077
:102BAC007B087A0479047804031DDD2DDE2DE62DD7
:102BBC000030F3000030F2000030F1000030F00083
:102BCC0000307405F80000307505F900803076058A
:102BDC00FA007F307705FB007B087A0479047804CF
:102BEC00031DF92DFA2D022E0030F7000030F600EF
:102BFC000030F5000030F400F31F052E062E2A2EAF
:102C0C000030F8000030F9000030FA008030FB0092
:102C1C007008F8027108031C710F152E162EF9029C
:102C2C007208031C720F1B2E1C2EFA027308031C55
:102C3C00730F212E222EFB027B08F3007A08F20080
:102C4C007908F1007808F000F71F2D2E2E2E522E49
:102C5C000030F8000030F9000030FA008030FB0042
:102C6C007408F8027508031C750F3D2E3E2EF902F0
:102C7C007608031C760F432E442EFA027708031CA9
:102C8C00770F492E4A2EFB027B08F7007A08F600D4
:102C9C007908F5007808F4008030F3068030F706E8
:102CAC0077087302031D642E76087202031D642ECE
:102CBC0075087102031D642E740870020318672EC8
:102CCC00682E6A2E03106B2E03140800F800780887
:102CDC000319712E722E862EF31F752E762E862ECC
:102CEC007009FA007109FB007209FC007309FD0000
:102CFC00FA0A0319FB0A0319FC0A0319FD0A8E2EA2
:102D0C007308FD007208FC007108FB007008FA00E3
:102D1C007308720471047004031D952E962E9F2E59
:102D2C000030F3000030F2000030F1000030F00011
:102D3C00252F9630F4007408F900B12E0130F40000
:102D4C007408F90701300310FD0CFC0CFB0CFA0C99
:102D5C00FF3E031DA92EFE307D05031DB62EB72E9A
:102D6C00A42ED32E0130F4007408F9070130FA07B1
:102D7C00003003180130FB07003003180130FC074A
:102D8C00003003180130FD0701300310FD0CFC0C62
:102D9C00FB0CFA0CFF3E031DCB2EFF307D05031DF3
:102DAC00D82ED92EB82EE52E0130F9020130F400C0
:102DBC000310FA0DFB0DFC0DFD0DF40BDE2EFC1BB0
:102DCC00E82EE92EEF2E023079020318EE2EEF2EAC
:102DDC00DA2E7918F22EF32EFB2EFF30FA05FF3087
:102DEC00FB057F30FC05FF30FD050310F90C79085D
:102DFC00F400F501F601F70118300310F40DF50D90
:102E0C00F60DF70DFF3E031D032F7408FA04750829
:102E1C00FB047608FC047708FD0478080319172FC7
:102E2C00182F1D2FF31F1B2F1C2F1D2FFD177D0877
:102E3C00F3007C08F2007B08F1007A08F00008002F
:102E4C00831603132508A70001300310A70DFF3EBE
:102E5C00031D2B2F0310270D240784000A168A113B
:102E6C000A200A168A11A8000A168A110A200A16C4
:102E7C008A11A9000A168A110A200A168A11AA00B8
:102E8C000A168A110A200A168A11AB002B08AF0009
:102E9C002A08AE002908AD002808AC00F12FFF303D
:102EAC00A5070318A60AFF30A6072508A7000130BE
:102EBC000310A70DFF3E031D5E2F0310270D2407E3
:102ECC0084000A168A110A200A168A11A8000A160A
:102EDC008A110A200A168A11A9000A168A110A20D8
:102EEC000A168A11AA000A168A110A200A168A11D1
:102EFC00AB002B0883120313DC00831603132A0880
:102F0C0083120313DB0083160313290883120313A4
:102F1C00DA0083160313280883120313D9008316CF
:102F2C0003132F0883120313A800831603132E0810
:102F3C0083120313A700831603132D0883120313A4
:102F4C00A600831603132C0883120313A500831603
:102F5C000313230883120313AC00831603132208F4
:102F6C0083120313AB00831603132108831203137C
:102F7C00AA0083160313200883120313A9000A1254
:102F8C008A1172200A168A11831203132808E00092
:102F9C002708DF002608DE002508DD000A128A1546
:102FAC0078250A168A11831203135C0883160313FF
:102FBC00AF00831203135B0883160313AE00831256
:102FCC0003135A0883160313AD0083120313590815
:102FDC0083160313AC0025082604031DF62FF72FC8
:102FEC00552F2F08A3002E08A2002D08A1002C0895
:042FFC00A000080029
:08400000FF3FFF3FFF3FFF3FC0
:04400E00D520FF3F7B
:00000001FF
