:060000000A128A11FC2F18
:100F72007130831603138F000715071383120313AF
:100F820007110713F301F401071DC82FC92FC52F3D
:100F92000130F3070318F40A0030F4071530F200A9
:100FA2004B30F100BE30F000F00BD52FF10BD52FF6
:100FB200F20BD52F000083120313071BE12FE22F40
:100FC200EB2F023073067404031DE82FE92FEB2F79
:100FD2000717C32F071FEE2FEF2FF82F02307306CC
:100FE2007404031DF52FF62FF82F0713C32FC52FF7
:0E0FF2000A128A11002883010A128A11B92FEF
:08400000FF3FFF3FFF3FFF3FC0
:04400E00D520FF3F7B
:00000001FF
