:100000000A128A11E62F00308A000408840A820747
:1000100000343234303432343134003449346E34C4
:1000200067347234653473346F3420344E346F3433
:1000300020345034653472346D3469347434693426
:1000400064346F34003443346C3461347634653452
:10005000203449346E3463346F347234723465340E
:10006000633474346134003443346C346134763432
:100070006534203443346F347234723465346334FD
:1000800074346134003450347234653473347334EE
:0E0090002034613420344B346534793400342C
:1008FC00F030F0007008831603138605F030F0001A
:10090C00700886048113080001300A128A112D2503
:10091C000A128A110830F400C930F300F30B942C3E
:10092C00F40B942C992C0800313432343334413488
:10093C00343435343634423437343834393443343F
:10094C002A343034233444347E088A007F088200F1
:10095C000A128A11AA240A128A118000840A040835
:10096C007D0603190034FF0A0319FE0AAE2CF400AD
:10097C00CF2C740884000A128A1103200A128A11DF
:10098C000A128A1163250A128A110130F3007308C6
:10099C00F407740884000A128A1103200A128A11BF
:1009AC00003A031DDA2CDB2CBF2C0800F8000230B7
:1009BC0078020318E22CE32CF02C75080F398038E0
:1009CC00F7007708F90079080A128A112D250A1206
:1009DC008A11FC2C75080F39C038F7007708F9001C
:1009EC0079080A128A112D250A128A1176080A1220
:1009FC008A11BD240A128A11080083160313880178
:100A0C002730F400F530F300F30B0A2DF40B0A2D0C
:100A1C0002300A128A112D250A128A1128300A1264
:100A2C008A112D250A128A1101300A128A112D25DC
:100A3C000A128A110C300A128A112D250A128A11F7
:100A4C0006300A128A112D250A128A110800F200AA
:100A5C00F0307205F0008312031308080F3970048C
:100A6C0088000810881400008312031388100330C8
:100A7C00F1009730F000F00B412DF10B412D462D7C
:100A8C007208F00004300310F00DFF3E031D492DD9
:100A9C008312031308080F397004880088140000AF
:100AAC008312031388100830F100C930F000F00BEA
:100ABC005D2DF10B5D2D622D0800F200F0307205FA
:100ACC00F0008312031308080F397004880008140F
:100ADC00881400008312031388100330F100973040
:100AEC00F000F00B772DF10B772D7C2D7208F000B8
:100AFC0004300310F00DFF3E031D7F2D83120313F2
:100B0C0008080F397004880088140000831203133E
:100B1C0088100830F100C930F000F00B932DF10B68
:100B2C00932D982D0800F500CE2D750884008313A5
:100B3C0000080319A22DA32DB32D700884000A12EE
:100B4C008A1103200A128A11F30075088400000828
:100B5C0073060319B22DB32DC62D700884000A122A
:100B6C008A1103200A128A11F30075088400000808
:100B7C00F40073087402F000F101031CF103DE2D84
:100B8C000130F3007308F5070130F3007308F00728
:100B9C000130F1020030031CF203F202710A031D52
:100BAC00DB2D720A031DDB2DDC2D9B2DF001F101D9
:100BBC000800203084003630F0000408F1001030BA
:100BCC00F2007008840083130008F300F00A710827
:100BDC00840073088000F10AF20BE72D83120313D3
:100BEC00B001B101B2018312031331083204031DA9
:100BFC00002E012E2E2EFE3086004230F000F00B1F
:100C0C00052E00000D2E2008F0007008B000831295
:100C1C000313061E122E132E092E182E2108F00077
:100C2C007008B000861E1B2E1C2E142E212E22089E
:100C3C00F0007008B000061F242E252E1D2E2A2E23
:100C4C002308F0007008B000861F2D2E2E2E262EA5
:100C5C0031033204031D332E342E612EFD308600F9
:100C6C004230F000F00B382E0000402E2408F0002B
:100C7C007008B00083120313061E452E462E3C2E20
:100C8C004B2E2508F0007008B000861E4E2E4F2EFD
:100C9C00472E542E2608F0007008B000061F572E61
:100CAC00582E502E5D2E2708F0007008B000861FBD
:100CBC00602E612E592E023031063204031D672E30
:100CCC00682E952EFB3086004230F000F00B6C2E17
:100CDC000000742E2808F0007008B0008312031373
:100CEC00061E792E7A2E702E7F2E2908F0007008A1
:100CFC00B000861E822E832E7B2E882E2A08F000B2
:100D0C007008B000061F8B2E8C2E842E912E2B0873
:100D1C00F0007008B000861F942E952E8D2E033097
:100D2C0031063204031D9B2E9C2EC92EF7308600F3
:100D3C004230F000F00BA02E0000A82E2C08F00082
:100D4C007008B00083120313061EAD2EAE2EA42E17
:100D5C00B32E2D08F0007008B000861EB62EB72EEC
:100D6C00AF2EBC2E2E08F0007008B000061FBF2E50
:100D7C00C02EB82EC52E2F08F0007008B000861FAC
:100D8C00C82EC92EC12E0130B1070318B20A00308B
:100D9C00B2073208803AFF0080307F02031DD82E44
:100DAC0004303102031CDB2EDC2EF92D83120313CD
:100DBC00300808007130831603138F008316031755
:100DCC00890183160313870185010A128A110325F1
:100DDC000A128A110A128A117E240A128A11F5014A
:100DEC003B30FA007A08F60000300A128A11DC2433
:100DFC000A128A11C0300A128A112D250A128A1180
:100E0C000A128A11DF250A128A11FA007A08831253
:100E1C000313B30033080319142F152F292F33088C
:100E2C000A128A1163250A128A11831203133308DA
:100E3C00FA004808493E84007A0883138000013088
:100E4C00FA007A08C8070230FC000430FB00BA3004
:100E5C00FA00FA0B2F2FFB0B2F2FFC0B2F2F000060
:100E6C000530831203134802031C3D2F3E2F062F1F
:100E7C000130FA007A08F0000430F1000030F20082
:100E8C0049300A128A1199250A128A1170087104C4
:100E9C00031D512F522F8B2F0A128A118A240A12EA
:100EAC008A11F5012C30FA007A08F60000300A128B
:100EBC008A11DC240A128A11013083120313850073
:100ECC00B401B5018312031334186D2F6E2F712FDB
:100EDC00AA308700772F341C742F752F772F55303D
:100EEC0087000130B4070318B50A0030B507350880
:100EFC00803AFF0080307F02031D862F08303402B9
:100F0C00031C892F8A2F682FA32F01308312031300
:100F1C00C6070318C70A0030C7070A128A118A24A9
:100F2C000A128A11F5011B30FA007A08F60000301B
:100F3C000A128A11DC240A128A1103308312031359
:100F4C0046064704031DAB2FAC2FCD2F0A128A1176
:100F5C008A240A128A11F5010630FA007A08F60082
:100F6C0000300A128A11DC240A128A110230831210
:100F7C00031385007A30FC00C130FB008130FA008D
:100F8C00FA0BC62FFB0BC62FFC0BC62FCD2F153023
:100F9C00FC004B30FB00BE30FA00FA0BD32FFB0BDE
:100FAC00D32FFC0BD32F00000A128A118A240A12A9
:100FBC008A1183120313C801F52E0A128A11002814
:100FCC0083134630FD000430FE009A30FF003630AB
:100FDC0084000A128A11AE240A128A11C601C701B2
:100FEC00C801C901CA01CB01CC01CD0183010A1290
:040FFC008A11E02E48
:08400000FF3FFF3FFF3FFF3FC0
:04400E00D520FF3F7B
:00000001FF
