:060000000A128A11F82F1C
:100E8E008316031388012730F400F530F300F30BBB
:100E9E004E2FF40B4E2F02300A128A1171270A12AE
:100EAE008A1128300A128A1171270A128A1101300A
:100EBE000A128A1171270A128A110C300A128A112B
:100ECE0071270A128A1106300A128A1171270A1224
:100EDE008A110800F200F0307205F000831203133D
:100EEE0008080F3970048800081088140000831257
:100EFE00031388100330F1009730F000F00B852FAC
:100F0E00F10B852F8A2F7208F00004300310F00DBC
:100F1E00FF3E031D8D2F8312031308080F39700433
:100F2E008800881400008312031388100830F10023
:100F3E00C930F000F00BA12FF10BA12FA62F080046
:100F4E007130831603138F000A128A1147270A1273
:100F5E008A11831603138714071287128312031341
:100F6E008710071287120430F7000C30F60033306A
:100F7E00F500F50BC02FF60BC02FF70BC02FC72FA8
:100F8E0083120313871CCC2FCD2FEF2F871604301F
:100F9E00F7000C30F6003330F500F50BD42FF60BBE
:100FAE00D42FF70BD42FDB2F8312031307160B301E
:100FBE00F7002630F6005D30F500F50BE42FF60B4A
:100FCE00E42FF70BE42FEB2F831203130712C72F17
:100FDE008718F22FF32FC72F8712BA2F0A128A11F2
:100FEE000028F801F901FA01FB0183010A128A11A6
:020FFE00A72F1B
:08400000FF3FFF3FFF3FFF3FC0
:04400E00D520FF3F7B
:00000001FF
